{
	"data": {
		"bytecode": {
			"linkReferences": {},
			"object": "608060405234801562000010575f80fd5b5073f214bd0c851eab46fbd7d605a8e4d246791fb3c360055f6101000a81548173ffffffffffffffffffffffffffffffffffffffff021916908373ffffffffffffffffffffffffffffffffffffffff16021790555060055f9054906101000a900473ffffffffffffffffffffffffffffffffffffffff1673ffffffffffffffffffffffffffffffffffffffff16633dd1eb61306040518263ffffffff1660e01b8152600401620000c1919062000139565b5f604051808303815f87803b158015620000d9575f80fd5b505af1158015620000ec573d5f803e3d5ffd5b5050505062000154565b5f73ffffffffffffffffffffffffffffffffffffffff82169050919050565b5f6200012182620000f6565b9050919050565b620001338162000115565b82525050565b5f6020820190506200014e5f83018462000128565b92915050565b61279380620001625f395ff3fe608060405234801561000f575f80fd5b50600436106100f3575f3560e01c80639ead722211610095578063cf6c62ea11610064578063cf6c62ea146102bc578063df791e50146102d8578063efcf251614610308578063f7b2a7be14610338576100f3565b80639ead72221461020f578063bf4741fb14610240578063c3cfe4a11461025c578063cb868f541461028c576100f3565b806361dedf9f116100d157806361dedf9f14610161578063643774521461017f5780637386479e146101af5780638bcee437146101df576100f3565b8063013eba92146100f75780632a5c792a146101275780633ee7f9d314610145575b5f80fd5b610111600480360381019061010c919061183f565b610356565b60405161011e9190611882565b60405180910390f35b61012f61036b565b60405161013c9190611a29565b60405180910390f35b61015f600480360381019061015a9190611a73565b6104aa565b005b61016961083a565b6040516101769190611b32565b60405180910390f35b6101996004803603810190610194919061183f565b61085f565b6040516101a69190611b63565b60405180910390f35b6101c960048036038101906101c49190611b7c565b6108a5565b6040516101d69190611882565b60405180910390f35b6101f960048036038101906101f4919061183f565b610928565b6040516102069190611c14565b60405180910390f35b61022960048036038101906102249190611c34565b6109a6565b604051610237929190611c6e565b60405180910390f35b61025a6004803603810190610255919061183f565b610a79565b005b6102766004803603810190610271919061183f565b610ae9565b6040516102839190611b63565b60405180910390f35b6102a660048036038101906102a1919061183f565b610afe565b6040516102b39190611882565b60405180910390f35b6102d660048036038101906102d19190611a73565b610b13565b005b6102f260048036038101906102ed9190611c9c565b610d99565b6040516102ff9190611882565b60405180910390f35b610322600480360381019061031d9190611cec565b61133f565b60405161032f9190611882565b60405180910390f35b61034061135f565b60405161034d9190611882565b60405180910390f35b6002602052805f5260405f205f915090505481565b60605f805480602002602001604051908101604052809291908181526020015f905b828210156104a1578382905f5260205f2090600202016040518060400160405290815f82015f9054906101000a900473ffffffffffffffffffffffffffffffffffffffff1673ffffffffffffffffffffffffffffffffffffffff1673ffffffffffffffffffffffffffffffffffffffff16815260200160018201805461041290611d57565b80601f016020809104026020016040519081016040528092919081815260200182805461043e90611d57565b80156104895780601f1061046057610100808354040283529160200191610489565b820191905f5260205f20905b81548152906001019060200180831161046c57829003601f168201915b5050505050815250508152602001906001019061038d565b50505050905090565b8160015f8673ffffffffffffffffffffffffffffffffffffffff1673ffffffffffffffffffffffffffffffffffffffff1681526020019081526020015f205f8573ffffffffffffffffffffffffffffffffffffffff1673ffffffffffffffffffffffffffffffffffffffff1681526020019081526020015f20541015610565576040517f08c379a000000000000000000000000000000000000000000000000000000000815260040161055c90611dd1565b60405180910390fd5b8060015f8573ffffffffffffffffffffffffffffffffffffffff1673ffffffffffffffffffffffffffffffffffffffff1681526020019081526020015f205f8673ffffffffffffffffffffffffffffffffffffffff1673ffffffffffffffffffffffffffffffffffffffff1681526020019081526020015f20541015610620576040517f08c379a000000000000000000000000000000000000000000000000000000000815260040161061790611e39565b60405180910390fd5b8160015f8673ffffffffffffffffffffffffffffffffffffffff1673ffffffffffffffffffffffffffffffffffffffff1681526020019081526020015f205f8573ffffffffffffffffffffffffffffffffffffffff1673ffffffffffffffffffffffffffffffffffffffff1681526020019081526020015f205f8282546106a79190611e84565b925050819055508060015f8573ffffffffffffffffffffffffffffffffffffffff1673ffffffffffffffffffffffffffffffffffffffff1681526020019081526020015f205f8673ffffffffffffffffffffffffffffffffffffffff1673ffffffffffffffffffffffffffffffffffffffff1681526020019081526020015f205f8282546107359190611e84565b925050819055508373ffffffffffffffffffffffffffffffffffffffff1663a9059cbb33846040518363ffffffff1660e01b8152600401610777929190611eb7565b6020604051808303815f875af1158015610793573d5f803e3d5ffd5b505050506040513d601f19601f820116820180604052508101906107b79190611f13565b508273ffffffffffffffffffffffffffffffffffffffff1663a9059cbb33836040518363ffffffff1660e01b81526004016107f3929190611eb7565b6020604051808303815f875af115801561080f573d5f803e3d5ffd5b505050506040513d601f19601f820116820180604052508101906108339190611f13565b5050505050565b60055f9054906101000a900473ffffffffffffffffffffffffffffffffffffffff1681565b5f60045f8373ffffffffffffffffffffffffffffffffffffffff1673ffffffffffffffffffffffffffffffffffffffff1681526020019081526020015f20549050919050565b5f80831180156108b457505f82115b6108f3576040517f08c379a00000000000000000000000000000000000000000000000000000000081526004016108ea90611f88565b60405180910390fd5b5f82856109009190611fa6565b90505f858561090f9190611fe7565b9050808261091d9190612047565b925050509392505050565b60605f8290508073ffffffffffffffffffffffffffffffffffffffff166395d89b416040518163ffffffff1660e01b81526004015f60405180830381865afa158015610976573d5f803e3d5ffd5b505050506040513d5f823e3d601f19601f8201168201806040525081019061099e9190612195565b915050919050565b5f81815481106109b4575f80fd5b905f5260205f2090600202015f91509050805f015f9054906101000a900473ffffffffffffffffffffffffffffffffffffffff16908060010180546109f890611d57565b80601f0160208091040260200160405190810160405280929190818152602001828054610a2490611d57565b8015610a6f5780601f10610a4657610100808354040283529160200191610a6f565b820191905f5260205f20905b815481529060010190602001808311610a5257829003601f168201915b5050505050905082565b5f81604051602001610a8b9190612221565b6040516020818303038152906040528051906020012090508060045f8473ffffffffffffffffffffffffffffffffffffffff1673ffffffffffffffffffffffffffffffffffffffff1681526020019081526020015f20819055505050565b6004602052805f5260405f205f915090505481565b6003602052805f5260405f205f915090505481565b5f82118015610b2157505f81115b610b60576040517f08c379a0000000000000000000000000000000000000000000000000000000008152600401610b57906122ab565b60405180910390fd5b610b698461136a565b610b728361136a565b8373ffffffffffffffffffffffffffffffffffffffff166323b872dd3330856040518463ffffffff1660e01b8152600401610baf939291906122c9565b6020604051808303815f875af1158015610bcb573d5f803e3d5ffd5b505050506040513d601f19601f82011682018060405250810190610bef9190611f13565b508273ffffffffffffffffffffffffffffffffffffffff166323b872dd3330846040518463ffffffff1660e01b8152600401610c2d939291906122c9565b6020604051808303815f875af1158015610c49573d5f803e3d5ffd5b505050506040513d601f19601f82011682018060405250810190610c6d9190611f13565b508160015f8673ffffffffffffffffffffffffffffffffffffffff1673ffffffffffffffffffffffffffffffffffffffff1681526020019081526020015f205f8573ffffffffffffffffffffffffffffffffffffffff1673ffffffffffffffffffffffffffffffffffffffff1681526020019081526020015f205f828254610cf59190611fe7565b925050819055508060015f8573ffffffffffffffffffffffffffffffffffffffff1673ffffffffffffffffffffffffffffffffffffffff1681526020019081526020015f205f8673ffffffffffffffffffffffffffffffffffffffff1673ffffffffffffffffffffffffffffffffffffffff1681526020019081526020015f205f828254610d839190611fe7565b92505081905550610d9333611436565b50505050565b5f808211610ddc576040517f08c379a0000000000000000000000000000000000000000000000000000000008152600401610dd390612348565b60405180910390fd5b5f60015f8673ffffffffffffffffffffffffffffffffffffffff1673ffffffffffffffffffffffffffffffffffffffff1681526020019081526020015f205f8573ffffffffffffffffffffffffffffffffffffffff1673ffffffffffffffffffffffffffffffffffffffff1681526020019081526020015f205490505f60015f8673ffffffffffffffffffffffffffffffffffffffff1673ffffffffffffffffffffffffffffffffffffffff1681526020019081526020015f205f8773ffffffffffffffffffffffffffffffffffffffff1673ffffffffffffffffffffffffffffffffffffffff1681526020019081526020015f205490505f82118015610ee257505f81115b610f21576040517f08c379a0000000000000000000000000000000000000000000000000000000008152600401610f18906123b0565b60405180910390fd5b5f620186a0600186610f339190611fa6565b610f3d9190612047565b90505f8186610f4c9190611e84565b9050610f598185856108a5565b9450848773ffffffffffffffffffffffffffffffffffffffff166370a08231306040518263ffffffff1660e01b8152600401610f9591906123ce565b602060405180830381865afa158015610fb0573d5f803e3d5ffd5b505050506040513d601f19601f82011682018060405250810190610fd491906123fb565b1015611015576040517f08c379a000000000000000000000000000000000000000000000000000000000815260040161100c906123b0565b60405180910390fd5b8773ffffffffffffffffffffffffffffffffffffffff166323b872dd3330896040518463ffffffff1660e01b8152600401611052939291906122c9565b6020604051808303815f875af115801561106e573d5f803e3d5ffd5b505050506040513d601f19601f820116820180604052508101906110929190611f13565b508673ffffffffffffffffffffffffffffffffffffffff1663a9059cbb33876040518363ffffffff1660e01b81526004016110ce929190611eb7565b6020604051808303815f875af11580156110ea573d5f803e3d5ffd5b505050506040513d601f19601f8201168201806040525081019061110e9190611f13565b508560015f8a73ffffffffffffffffffffffffffffffffffffffff1673ffffffffffffffffffffffffffffffffffffffff1681526020019081526020015f205f8973ffffffffffffffffffffffffffffffffffffffff1673ffffffffffffffffffffffffffffffffffffffff1681526020019081526020015f205f8282546111969190611fe7565b925050819055508460015f8973ffffffffffffffffffffffffffffffffffffffff1673ffffffffffffffffffffffffffffffffffffffff1681526020019081526020015f205f8a73ffffffffffffffffffffffffffffffffffffffff1673ffffffffffffffffffffffffffffffffffffffff1681526020019081526020015f205f8282546112249190611e84565b925050819055508773ffffffffffffffffffffffffffffffffffffffff1663a9059cbb60055f9054906101000a900473ffffffffffffffffffffffffffffffffffffffff1673ffffffffffffffffffffffffffffffffffffffff16638da5cb5b6040518163ffffffff1660e01b8152600401602060405180830381865afa1580156112b1573d5f803e3d5ffd5b505050506040513d601f19601f820116820180604052508101906112d5919061243a565b846040518363ffffffff1660e01b81526004016112f3929190611eb7565b6020604051808303815f875af115801561130f573d5f803e3d5ffd5b505050506040513d601f19601f820116820180604052508101906113339190611f13565b50505050509392505050565b6001602052815f5260405f20602052805f5260405f205f91509150505481565b662386f26fc1000081565b6113738161172e565b611433575f61138182610928565b90505f60405180604001604052808473ffffffffffffffffffffffffffffffffffffffff16815260200183815250908060018154018082558091505060019003905f5260205f2090600202015f909190919091505f820151815f015f6101000a81548173ffffffffffffffffffffffffffffffffffffffff021916908373ffffffffffffffffffffffffffffffffffffffff160217905550602082015181600101908161142e91906125f9565b505050505b50565b5f62015180426114469190612047565b90508060025f8473ffffffffffffffffffffffffffffffffffffffff1673ffffffffffffffffffffffffffffffffffffffff1681526020019081526020015f20541015611512575f60035f8473ffffffffffffffffffffffffffffffffffffffff1673ffffffffffffffffffffffffffffffffffffffff1681526020019081526020015f20819055508060025f8473ffffffffffffffffffffffffffffffffffffffff1673ffffffffffffffffffffffffffffffffffffffff1681526020019081526020015f20819055505b66b1a2bc2ec5000060035f8473ffffffffffffffffffffffffffffffffffffffff1673ffffffffffffffffffffffffffffffffffffffff1681526020019081526020015f205410611598576040517f08c379a000000000000000000000000000000000000000000000000000000000815260040161158f90612712565b60405180910390fd5b5f662386f26fc10000905066b1a2bc2ec500008160035f8673ffffffffffffffffffffffffffffffffffffffff1673ffffffffffffffffffffffffffffffffffffffff1681526020019081526020015f20546115f49190611fe7565b111561164d5760035f8473ffffffffffffffffffffffffffffffffffffffff1673ffffffffffffffffffffffffffffffffffffffff1681526020019081526020015f205466b1a2bc2ec5000061164a9190611e84565b90505b8060035f8573ffffffffffffffffffffffffffffffffffffffff1673ffffffffffffffffffffffffffffffffffffffff1681526020019081526020015f205f8282546116999190611fe7565b9250508190555060055f9054906101000a900473ffffffffffffffffffffffffffffffffffffffff1673ffffffffffffffffffffffffffffffffffffffff16630219a71484836040518363ffffffff1660e01b81526004016116fc929190611eb7565b5f604051808303815f87803b158015611713575f80fd5b505af1158015611725573d5f803e3d5ffd5b50505050505050565b5f805f90505b5f805490508110156117ca578273ffffffffffffffffffffffffffffffffffffffff165f828154811061176a57611769612730565b5b905f5260205f2090600202015f015f9054906101000a900473ffffffffffffffffffffffffffffffffffffffff1673ffffffffffffffffffffffffffffffffffffffff16036117bd5760019150506117cf565b8080600101915050611734565b505f90505b919050565b5f604051905090565b5f80fd5b5f80fd5b5f73ffffffffffffffffffffffffffffffffffffffff82169050919050565b5f61180e826117e5565b9050919050565b61181e81611804565b8114611828575f80fd5b50565b5f8135905061183981611815565b92915050565b5f60208284031215611854576118536117dd565b5b5f6118618482850161182b565b91505092915050565b5f819050919050565b61187c8161186a565b82525050565b5f6020820190506118955f830184611873565b92915050565b5f81519050919050565b5f82825260208201905092915050565b5f819050602082019050919050565b6118cd81611804565b82525050565b5f81519050919050565b5f82825260208201905092915050565b5f5b8381101561190a5780820151818401526020810190506118ef565b5f8484015250505050565b5f601f19601f8301169050919050565b5f61192f826118d3565b61193981856118dd565b93506119498185602086016118ed565b61195281611915565b840191505092915050565b5f604083015f8301516119725f8601826118c4565b506020830151848203602086015261198a8282611925565b9150508091505092915050565b5f6119a2838361195d565b905092915050565b5f602082019050919050565b5f6119c08261189b565b6119ca81856118a5565b9350836020820285016119dc856118b5565b805f5b85811015611a1757848403895281516119f88582611997565b9450611a03836119aa565b925060208a019950506001810190506119df565b50829750879550505050505092915050565b5f6020820190508181035f830152611a4181846119b6565b905092915050565b611a528161186a565b8114611a5c575f80fd5b50565b5f81359050611a6d81611a49565b92915050565b5f805f8060808587031215611a8b57611a8a6117dd565b5b5f611a988782880161182b565b9450506020611aa98782880161182b565b9350506040611aba87828801611a5f565b9250506060611acb87828801611a5f565b91505092959194509250565b5f819050919050565b5f611afa611af5611af0846117e5565b611ad7565b6117e5565b9050919050565b5f611b0b82611ae0565b9050919050565b5f611b1c82611b01565b9050919050565b611b2c81611b12565b82525050565b5f602082019050611b455f830184611b23565b92915050565b5f819050919050565b611b5d81611b4b565b82525050565b5f602082019050611b765f830184611b54565b92915050565b5f805f60608486031215611b9357611b926117dd565b5b5f611ba086828701611a5f565b9350506020611bb186828701611a5f565b9250506040611bc286828701611a5f565b9150509250925092565b5f82825260208201905092915050565b5f611be6826118d3565b611bf08185611bcc565b9350611c008185602086016118ed565b611c0981611915565b840191505092915050565b5f6020820190508181035f830152611c2c8184611bdc565b905092915050565b5f60208284031215611c4957611c486117dd565b5b5f611c5684828501611a5f565b91505092915050565b611c6881611804565b82525050565b5f604082019050611c815f830185611c5f565b8181036020830152611c938184611bdc565b90509392505050565b5f805f60608486031215611cb357611cb26117dd565b5b5f611cc08682870161182b565b9350506020611cd18682870161182b565b9250506040611ce286828701611a5f565b9150509250925092565b5f8060408385031215611d0257611d016117dd565b5b5f611d0f8582860161182b565b9250506020611d208582860161182b565b9150509250929050565b7f4e487b71000000000000000000000000000000000000000000000000000000005f52602260045260245ffd5b5f6002820490506001821680611d6e57607f821691505b602082108103611d8157611d80611d2a565b5b50919050565b7f4e6f7420656e6f756768206c697175696469747920666f7220746f6b656e41005f82015250565b5f611dbb601f83611bcc565b9150611dc682611d87565b602082019050919050565b5f6020820190508181035f830152611de881611daf565b9050919050565b7f4e6f7420656e6f756768206c697175696469747920666f7220746f6b656e42005f82015250565b5f611e23601f83611bcc565b9150611e2e82611def565b602082019050919050565b5f6020820190508181035f830152611e5081611e17565b9050919050565b7f4e487b71000000000000000000000000000000000000000000000000000000005f52601160045260245ffd5b5f611e8e8261186a565b9150611e998361186a565b9250828203905081811115611eb157611eb0611e57565b5b92915050565b5f604082019050611eca5f830185611c5f565b611ed76020830184611873565b9392505050565b5f8115159050919050565b611ef281611ede565b8114611efc575f80fd5b50565b5f81519050611f0d81611ee9565b92915050565b5f60208284031215611f2857611f276117dd565b5b5f611f3584828501611eff565b91505092915050565b7f496e76616c6964207265736572766573000000000000000000000000000000005f82015250565b5f611f72601083611bcc565b9150611f7d82611f3e565b602082019050919050565b5f6020820190508181035f830152611f9f81611f66565b9050919050565b5f611fb08261186a565b9150611fbb8361186a565b9250828202611fc98161186a565b91508282048414831517611fe057611fdf611e57565b5b5092915050565b5f611ff18261186a565b9150611ffc8361186a565b925082820190508082111561201457612013611e57565b5b92915050565b7f4e487b71000000000000000000000000000000000000000000000000000000005f52601260045260245ffd5b5f6120518261186a565b915061205c8361186a565b92508261206c5761206b61201a565b5b828204905092915050565b5f80fd5b5f80fd5b7f4e487b71000000000000000000000000000000000000000000000000000000005f52604160045260245ffd5b6120b582611915565b810181811067ffffffffffffffff821117156120d4576120d361207f565b5b80604052505050565b5f6120e66117d4565b90506120f282826120ac565b919050565b5f67ffffffffffffffff8211156121115761211061207f565b5b61211a82611915565b9050602081019050919050565b5f612139612134846120f7565b6120dd565b9050828152602081018484840111156121555761215461207b565b5b6121608482856118ed565b509392505050565b5f82601f83011261217c5761217b612077565b5b815161218c848260208601612127565b91505092915050565b5f602082840312156121aa576121a96117dd565b5b5f82015167ffffffffffffffff8111156121c7576121c66117e1565b5b6121d384828501612168565b91505092915050565b5f8160601b9050919050565b5f6121f2826121dc565b9050919050565b5f612203826121e8565b9050919050565b61221b61221682611804565b6121f9565b82525050565b5f61222c828461220a565b60148201915081905092915050565b7f4d7573742073656e6420746f6b656e7320746f20616464206c697175696469745f8201527f7900000000000000000000000000000000000000000000000000000000000000602082015250565b5f612295602183611bcc565b91506122a08261223b565b604082019050919050565b5f6020820190508181035f8301526122c281612289565b9050919050565b5f6060820190506122dc5f830186611c5f565b6122e96020830185611c5f565b6122f66040830184611873565b949350505050565b7f416d6f756e74206d7573742062652067726561746572207468616e207a65726f5f82015250565b5f612332602083611bcc565b915061233d826122fe565b602082019050919050565b5f6020820190508181035f83015261235f81612326565b9050919050565b7f4e6f7420656e6f756768206c697175696469747920696e20706f6f6c000000005f82015250565b5f61239a601c83611bcc565b91506123a582612366565b602082019050919050565b5f6020820190508181035f8301526123c78161238e565b9050919050565b5f6020820190506123e15f830184611c5f565b92915050565b5f815190506123f581611a49565b92915050565b5f602082840312156124105761240f6117dd565b5b5f61241d848285016123e7565b91505092915050565b5f8151905061243481611815565b92915050565b5f6020828403121561244f5761244e6117dd565b5b5f61245c84828501612426565b91505092915050565b5f819050815f5260205f209050919050565b5f6020601f8301049050919050565b5f82821b905092915050565b5f600883026124c17fffffffffffffffffffffffffffffffffffffffffffffffffffffffffffffffff82612486565b6124cb8683612486565b95508019841693508086168417925050509392505050565b5f6124fd6124f86124f38461186a565b611ad7565b61186a565b9050919050565b5f819050919050565b612516836124e3565b61252a61252282612504565b848454612492565b825550505050565b5f90565b61253e612532565b61254981848461250d565b505050565b5b8181101561256c576125615f82612536565b60018101905061254f565b5050565b601f8211156125b15761258281612465565b61258b84612477565b8101602085101561259a578190505b6125ae6125a685612477565b83018261254e565b50505b505050565b5f82821c905092915050565b5f6125d15f19846008026125b6565b1980831691505092915050565b5f6125e983836125c2565b9150826002028217905092915050565b612602826118d3565b67ffffffffffffffff81111561261b5761261a61207f565b5b6126258254611d57565b612630828285612570565b5f60209050601f831160018114612661575f841561264f578287015190505b61265985826125de565b8655506126c0565b601f19841661266f86612465565b5f5b8281101561269657848901518255600182019150602085019450602081019050612671565b868310156126b357848901516126af601f8916826125c2565b8355505b6001600288020188555050505b505050505050565b7f4461696c7920726577617264206c696d697420726561636865640000000000005f82015250565b5f6126fc601a83611bcc565b9150612707826126c8565b602082019050919050565b5f6020820190508181035f830152612729816126f0565b9050919050565b7f4e487b71000000000000000000000000000000000000000000000000000000005f52603260045260245ffdfea2646970667358221220ececfee033b213323c6c20efd9753ed9a1a36b9b9cdfbb03b37a4e6d642c561264736f6c63430008180033",
			"opcodes": "PUSH1 0x80 PUSH1 0x40 MSTORE CALLVALUE DUP1 ISZERO PUSH3 0x10 JUMPI PUSH0 DUP1 REVERT JUMPDEST POP PUSH20 0xF214BD0C851EAB46FBD7D605A8E4D246791FB3C3 PUSH1 0x5 PUSH0 PUSH2 0x100 EXP DUP2 SLOAD DUP2 PUSH20 0xFFFFFFFFFFFFFFFFFFFFFFFFFFFFFFFFFFFFFFFF MUL NOT AND SWAP1 DUP4 PUSH20 0xFFFFFFFFFFFFFFFFFFFFFFFFFFFFFFFFFFFFFFFF AND MUL OR SWAP1 SSTORE POP PUSH1 0x5 PUSH0 SWAP1 SLOAD SWAP1 PUSH2 0x100 EXP SWAP1 DIV PUSH20 0xFFFFFFFFFFFFFFFFFFFFFFFFFFFFFFFFFFFFFFFF AND PUSH20 0xFFFFFFFFFFFFFFFFFFFFFFFFFFFFFFFFFFFFFFFF AND PUSH4 0x3DD1EB61 ADDRESS PUSH1 0x40 MLOAD DUP3 PUSH4 0xFFFFFFFF AND PUSH1 0xE0 SHL DUP2 MSTORE PUSH1 0x4 ADD PUSH3 0xC1 SWAP2 SWAP1 PUSH3 0x139 JUMP JUMPDEST PUSH0 PUSH1 0x40 MLOAD DUP1 DUP4 SUB DUP2 PUSH0 DUP8 DUP1 EXTCODESIZE ISZERO DUP1 ISZERO PUSH3 0xD9 JUMPI PUSH0 DUP1 REVERT JUMPDEST POP GAS CALL ISZERO DUP1 ISZERO PUSH3 0xEC JUMPI RETURNDATASIZE PUSH0 DUP1 RETURNDATACOPY RETURNDATASIZE PUSH0 REVERT JUMPDEST POP POP POP POP PUSH3 0x154 JUMP JUMPDEST PUSH0 PUSH20 0xFFFFFFFFFFFFFFFFFFFFFFFFFFFFFFFFFFFFFFFF DUP3 AND SWAP1 POP SWAP2 SWAP1 POP JUMP JUMPDEST PUSH0 PUSH3 0x121 DUP3 PUSH3 0xF6 JUMP JUMPDEST SWAP1 POP SWAP2 SWAP1 POP JUMP JUMPDEST PUSH3 0x133 DUP2 PUSH3 0x115 JUMP JUMPDEST DUP3 MSTORE POP POP JUMP JUMPDEST PUSH0 PUSH1 0x20 DUP3 ADD SWAP1 POP PUSH3 0x14E PUSH0 DUP4 ADD DUP5 PUSH3 0x128 JUMP JUMPDEST SWAP3 SWAP2 POP POP JUMP JUMPDEST PUSH2 0x2793 DUP1 PUSH3 0x162 PUSH0 CODECOPY PUSH0 RETURN INVALID PUSH1 0x80 PUSH1 0x40 MSTORE CALLVALUE DUP1 ISZERO PUSH2 0xF JUMPI PUSH0 DUP1 REVERT JUMPDEST POP PUSH1 0x4 CALLDATASIZE LT PUSH2 0xF3 JUMPI PUSH0 CALLDATALOAD PUSH1 0xE0 SHR DUP1 PUSH4 0x9EAD7222 GT PUSH2 0x95 JUMPI DUP1 PUSH4 0xCF6C62EA GT PUSH2 0x64 JUMPI DUP1 PUSH4 0xCF6C62EA EQ PUSH2 0x2BC JUMPI DUP1 PUSH4 0xDF791E50 EQ PUSH2 0x2D8 JUMPI DUP1 PUSH4 0xEFCF2516 EQ PUSH2 0x308 JUMPI DUP1 PUSH4 0xF7B2A7BE EQ PUSH2 0x338 JUMPI PUSH2 0xF3 JUMP JUMPDEST DUP1 PUSH4 0x9EAD7222 EQ PUSH2 0x20F JUMPI DUP1 PUSH4 0xBF4741FB EQ PUSH2 0x240 JUMPI DUP1 PUSH4 0xC3CFE4A1 EQ PUSH2 0x25C JUMPI DUP1 PUSH4 0xCB868F54 EQ PUSH2 0x28C JUMPI PUSH2 0xF3 JUMP JUMPDEST DUP1 PUSH4 0x61DEDF9F GT PUSH2 0xD1 JUMPI DUP1 PUSH4 0x61DEDF9F EQ PUSH2 0x161 JUMPI DUP1 PUSH4 0x64377452 EQ PUSH2 0x17F JUMPI DUP1 PUSH4 0x7386479E EQ PUSH2 0x1AF JUMPI DUP1 PUSH4 0x8BCEE437 EQ PUSH2 0x1DF JUMPI PUSH2 0xF3 JUMP JUMPDEST DUP1 PUSH4 0x13EBA92 EQ PUSH2 0xF7 JUMPI DUP1 PUSH4 0x2A5C792A EQ PUSH2 0x127 JUMPI DUP1 PUSH4 0x3EE7F9D3 EQ PUSH2 0x145 JUMPI JUMPDEST PUSH0 DUP1 REVERT JUMPDEST PUSH2 0x111 PUSH1 0x4 DUP1 CALLDATASIZE SUB DUP2 ADD SWAP1 PUSH2 0x10C SWAP2 SWAP1 PUSH2 0x183F JUMP JUMPDEST PUSH2 0x356 JUMP JUMPDEST PUSH1 0x40 MLOAD PUSH2 0x11E SWAP2 SWAP1 PUSH2 0x1882 JUMP JUMPDEST PUSH1 0x40 MLOAD DUP1 SWAP2 SUB SWAP1 RETURN JUMPDEST PUSH2 0x12F PUSH2 0x36B JUMP JUMPDEST PUSH1 0x40 MLOAD PUSH2 0x13C SWAP2 SWAP1 PUSH2 0x1A29 JUMP JUMPDEST PUSH1 0x40 MLOAD DUP1 SWAP2 SUB SWAP1 RETURN JUMPDEST PUSH2 0x15F PUSH1 0x4 DUP1 CALLDATASIZE SUB DUP2 ADD SWAP1 PUSH2 0x15A SWAP2 SWAP1 PUSH2 0x1A73 JUMP JUMPDEST PUSH2 0x4AA JUMP JUMPDEST STOP JUMPDEST PUSH2 0x169 PUSH2 0x83A JUMP JUMPDEST PUSH1 0x40 MLOAD PUSH2 0x176 SWAP2 SWAP1 PUSH2 0x1B32 JUMP JUMPDEST PUSH1 0x40 MLOAD DUP1 SWAP2 SUB SWAP1 RETURN JUMPDEST PUSH2 0x199 PUSH1 0x4 DUP1 CALLDATASIZE SUB DUP2 ADD SWAP1 PUSH2 0x194 SWAP2 SWAP1 PUSH2 0x183F JUMP JUMPDEST PUSH2 0x85F JUMP JUMPDEST PUSH1 0x40 MLOAD PUSH2 0x1A6 SWAP2 SWAP1 PUSH2 0x1B63 JUMP JUMPDEST PUSH1 0x40 MLOAD DUP1 SWAP2 SUB SWAP1 RETURN JUMPDEST PUSH2 0x1C9 PUSH1 0x4 DUP1 CALLDATASIZE SUB DUP2 ADD SWAP1 PUSH2 0x1C4 SWAP2 SWAP1 PUSH2 0x1B7C JUMP JUMPDEST PUSH2 0x8A5 JUMP JUMPDEST PUSH1 0x40 MLOAD PUSH2 0x1D6 SWAP2 SWAP1 PUSH2 0x1882 JUMP JUMPDEST PUSH1 0x40 MLOAD DUP1 SWAP2 SUB SWAP1 RETURN JUMPDEST PUSH2 0x1F9 PUSH1 0x4 DUP1 CALLDATASIZE SUB DUP2 ADD SWAP1 PUSH2 0x1F4 SWAP2 SWAP1 PUSH2 0x183F JUMP JUMPDEST PUSH2 0x928 JUMP JUMPDEST PUSH1 0x40 MLOAD PUSH2 0x206 SWAP2 SWAP1 PUSH2 0x1C14 JUMP JUMPDEST PUSH1 0x40 MLOAD DUP1 SWAP2 SUB SWAP1 RETURN JUMPDEST PUSH2 0x229 PUSH1 0x4 DUP1 CALLDATASIZE SUB DUP2 ADD SWAP1 PUSH2 0x224 SWAP2 SWAP1 PUSH2 0x1C34 JUMP JUMPDEST PUSH2 0x9A6 JUMP JUMPDEST PUSH1 0x40 MLOAD PUSH2 0x237 SWAP3 SWAP2 SWAP1 PUSH2 0x1C6E JUMP JUMPDEST PUSH1 0x40 MLOAD DUP1 SWAP2 SUB SWAP1 RETURN JUMPDEST PUSH2 0x25A PUSH1 0x4 DUP1 CALLDATASIZE SUB DUP2 ADD SWAP1 PUSH2 0x255 SWAP2 SWAP1 PUSH2 0x183F JUMP JUMPDEST PUSH2 0xA79 JUMP JUMPDEST STOP JUMPDEST PUSH2 0x276 PUSH1 0x4 DUP1 CALLDATASIZE SUB DUP2 ADD SWAP1 PUSH2 0x271 SWAP2 SWAP1 PUSH2 0x183F JUMP JUMPDEST PUSH2 0xAE9 JUMP JUMPDEST PUSH1 0x40 MLOAD PUSH2 0x283 SWAP2 SWAP1 PUSH2 0x1B63 JUMP JUMPDEST PUSH1 0x40 MLOAD DUP1 SWAP2 SUB SWAP1 RETURN JUMPDEST PUSH2 0x2A6 PUSH1 0x4 DUP1 CALLDATASIZE SUB DUP2 ADD SWAP1 PUSH2 0x2A1 SWAP2 SWAP1 PUSH2 0x183F JUMP JUMPDEST PUSH2 0xAFE JUMP JUMPDEST PUSH1 0x40 MLOAD PUSH2 0x2B3 SWAP2 SWAP1 PUSH2 0x1882 JUMP JUMPDEST PUSH1 0x40 MLOAD DUP1 SWAP2 SUB SWAP1 RETURN JUMPDEST PUSH2 0x2D6 PUSH1 0x4 DUP1 CALLDATASIZE SUB DUP2 ADD SWAP1 PUSH2 0x2D1 SWAP2 SWAP1 PUSH2 0x1A73 JUMP JUMPDEST PUSH2 0xB13 JUMP JUMPDEST STOP JUMPDEST PUSH2 0x2F2 PUSH1 0x4 DUP1 CALLDATASIZE SUB DUP2 ADD SWAP1 PUSH2 0x2ED SWAP2 SWAP1 PUSH2 0x1C9C JUMP JUMPDEST PUSH2 0xD99 JUMP JUMPDEST PUSH1 0x40 MLOAD PUSH2 0x2FF SWAP2 SWAP1 PUSH2 0x1882 JUMP JUMPDEST PUSH1 0x40 MLOAD DUP1 SWAP2 SUB SWAP1 RETURN JUMPDEST PUSH2 0x322 PUSH1 0x4 DUP1 CALLDATASIZE SUB DUP2 ADD SWAP1 PUSH2 0x31D SWAP2 SWAP1 PUSH2 0x1CEC JUMP JUMPDEST PUSH2 0x133F JUMP JUMPDEST PUSH1 0x40 MLOAD PUSH2 0x32F SWAP2 SWAP1 PUSH2 0x1882 JUMP JUMPDEST PUSH1 0x40 MLOAD DUP1 SWAP2 SUB SWAP1 RETURN JUMPDEST PUSH2 0x340 PUSH2 0x135F JUMP JUMPDEST PUSH1 0x40 MLOAD PUSH2 0x34D SWAP2 SWAP1 PUSH2 0x1882 JUMP JUMPDEST PUSH1 0x40 MLOAD DUP1 SWAP2 SUB SWAP1 RETURN JUMPDEST PUSH1 0x2 PUSH1 0x20 MSTORE DUP1 PUSH0 MSTORE PUSH1 0x40 PUSH0 KECCAK256 PUSH0 SWAP2 POP SWAP1 POP SLOAD DUP2 JUMP JUMPDEST PUSH1 0x60 PUSH0 DUP1 SLOAD DUP1 PUSH1 0x20 MUL PUSH1 0x20 ADD PUSH1 0x40 MLOAD SWAP1 DUP2 ADD PUSH1 0x40 MSTORE DUP1 SWAP3 SWAP2 SWAP1 DUP2 DUP2 MSTORE PUSH1 0x20 ADD PUSH0 SWAP1 JUMPDEST DUP3 DUP3 LT ISZERO PUSH2 0x4A1 JUMPI DUP4 DUP3 SWAP1 PUSH0 MSTORE PUSH1 0x20 PUSH0 KECCAK256 SWAP1 PUSH1 0x2 MUL ADD PUSH1 0x40 MLOAD DUP1 PUSH1 0x40 ADD PUSH1 0x40 MSTORE SWAP1 DUP2 PUSH0 DUP3 ADD PUSH0 SWAP1 SLOAD SWAP1 PUSH2 0x100 EXP SWAP1 DIV PUSH20 0xFFFFFFFFFFFFFFFFFFFFFFFFFFFFFFFFFFFFFFFF AND PUSH20 0xFFFFFFFFFFFFFFFFFFFFFFFFFFFFFFFFFFFFFFFF AND PUSH20 0xFFFFFFFFFFFFFFFFFFFFFFFFFFFFFFFFFFFFFFFF AND DUP2 MSTORE PUSH1 0x20 ADD PUSH1 0x1 DUP3 ADD DUP1 SLOAD PUSH2 0x412 SWAP1 PUSH2 0x1D57 JUMP JUMPDEST DUP1 PUSH1 0x1F ADD PUSH1 0x20 DUP1 SWAP2 DIV MUL PUSH1 0x20 ADD PUSH1 0x40 MLOAD SWAP1 DUP2 ADD PUSH1 0x40 MSTORE DUP1 SWAP3 SWAP2 SWAP1 DUP2 DUP2 MSTORE PUSH1 0x20 ADD DUP3 DUP1 SLOAD PUSH2 0x43E SWAP1 PUSH2 0x1D57 JUMP JUMPDEST DUP1 ISZERO PUSH2 0x489 JUMPI DUP1 PUSH1 0x1F LT PUSH2 0x460 JUMPI PUSH2 0x100 DUP1 DUP4 SLOAD DIV MUL DUP4 MSTORE SWAP2 PUSH1 0x20 ADD SWAP2 PUSH2 0x489 JUMP JUMPDEST DUP3 ADD SWAP2 SWAP1 PUSH0 MSTORE PUSH1 0x20 PUSH0 KECCAK256 SWAP1 JUMPDEST DUP2 SLOAD DUP2 MSTORE SWAP1 PUSH1 0x1 ADD SWAP1 PUSH1 0x20 ADD DUP1 DUP4 GT PUSH2 0x46C JUMPI DUP3 SWAP1 SUB PUSH1 0x1F AND DUP3 ADD SWAP2 JUMPDEST POP POP POP POP POP DUP2 MSTORE POP POP DUP2 MSTORE PUSH1 0x20 ADD SWAP1 PUSH1 0x1 ADD SWAP1 PUSH2 0x38D JUMP JUMPDEST POP POP POP POP SWAP1 POP SWAP1 JUMP JUMPDEST DUP2 PUSH1 0x1 PUSH0 DUP7 PUSH20 0xFFFFFFFFFFFFFFFFFFFFFFFFFFFFFFFFFFFFFFFF AND PUSH20 0xFFFFFFFFFFFFFFFFFFFFFFFFFFFFFFFFFFFFFFFF AND DUP2 MSTORE PUSH1 0x20 ADD SWAP1 DUP2 MSTORE PUSH1 0x20 ADD PUSH0 KECCAK256 PUSH0 DUP6 PUSH20 0xFFFFFFFFFFFFFFFFFFFFFFFFFFFFFFFFFFFFFFFF AND PUSH20 0xFFFFFFFFFFFFFFFFFFFFFFFFFFFFFFFFFFFFFFFF AND DUP2 MSTORE PUSH1 0x20 ADD SWAP1 DUP2 MSTORE PUSH1 0x20 ADD PUSH0 KECCAK256 SLOAD LT ISZERO PUSH2 0x565 JUMPI PUSH1 0x40 MLOAD PUSH32 0x8C379A000000000000000000000000000000000000000000000000000000000 DUP2 MSTORE PUSH1 0x4 ADD PUSH2 0x55C SWAP1 PUSH2 0x1DD1 JUMP JUMPDEST PUSH1 0x40 MLOAD DUP1 SWAP2 SUB SWAP1 REVERT JUMPDEST DUP1 PUSH1 0x1 PUSH0 DUP6 PUSH20 0xFFFFFFFFFFFFFFFFFFFFFFFFFFFFFFFFFFFFFFFF AND PUSH20 0xFFFFFFFFFFFFFFFFFFFFFFFFFFFFFFFFFFFFFFFF AND DUP2 MSTORE PUSH1 0x20 ADD SWAP1 DUP2 MSTORE PUSH1 0x20 ADD PUSH0 KECCAK256 PUSH0 DUP7 PUSH20 0xFFFFFFFFFFFFFFFFFFFFFFFFFFFFFFFFFFFFFFFF AND PUSH20 0xFFFFFFFFFFFFFFFFFFFFFFFFFFFFFFFFFFFFFFFF AND DUP2 MSTORE PUSH1 0x20 ADD SWAP1 DUP2 MSTORE PUSH1 0x20 ADD PUSH0 KECCAK256 SLOAD LT ISZERO PUSH2 0x620 JUMPI PUSH1 0x40 MLOAD PUSH32 0x8C379A000000000000000000000000000000000000000000000000000000000 DUP2 MSTORE PUSH1 0x4 ADD PUSH2 0x617 SWAP1 PUSH2 0x1E39 JUMP JUMPDEST PUSH1 0x40 MLOAD DUP1 SWAP2 SUB SWAP1 REVERT JUMPDEST DUP2 PUSH1 0x1 PUSH0 DUP7 PUSH20 0xFFFFFFFFFFFFFFFFFFFFFFFFFFFFFFFFFFFFFFFF AND PUSH20 0xFFFFFFFFFFFFFFFFFFFFFFFFFFFFFFFFFFFFFFFF AND DUP2 MSTORE PUSH1 0x20 ADD SWAP1 DUP2 MSTORE PUSH1 0x20 ADD PUSH0 KECCAK256 PUSH0 DUP6 PUSH20 0xFFFFFFFFFFFFFFFFFFFFFFFFFFFFFFFFFFFFFFFF AND PUSH20 0xFFFFFFFFFFFFFFFFFFFFFFFFFFFFFFFFFFFFFFFF AND DUP2 MSTORE PUSH1 0x20 ADD SWAP1 DUP2 MSTORE PUSH1 0x20 ADD PUSH0 KECCAK256 PUSH0 DUP3 DUP3 SLOAD PUSH2 0x6A7 SWAP2 SWAP1 PUSH2 0x1E84 JUMP JUMPDEST SWAP3 POP POP DUP2 SWAP1 SSTORE POP DUP1 PUSH1 0x1 PUSH0 DUP6 PUSH20 0xFFFFFFFFFFFFFFFFFFFFFFFFFFFFFFFFFFFFFFFF AND PUSH20 0xFFFFFFFFFFFFFFFFFFFFFFFFFFFFFFFFFFFFFFFF AND DUP2 MSTORE PUSH1 0x20 ADD SWAP1 DUP2 MSTORE PUSH1 0x20 ADD PUSH0 KECCAK256 PUSH0 DUP7 PUSH20 0xFFFFFFFFFFFFFFFFFFFFFFFFFFFFFFFFFFFFFFFF AND PUSH20 0xFFFFFFFFFFFFFFFFFFFFFFFFFFFFFFFFFFFFFFFF AND DUP2 MSTORE PUSH1 0x20 ADD SWAP1 DUP2 MSTORE PUSH1 0x20 ADD PUSH0 KECCAK256 PUSH0 DUP3 DUP3 SLOAD PUSH2 0x735 SWAP2 SWAP1 PUSH2 0x1E84 JUMP JUMPDEST SWAP3 POP POP DUP2 SWAP1 SSTORE POP DUP4 PUSH20 0xFFFFFFFFFFFFFFFFFFFFFFFFFFFFFFFFFFFFFFFF AND PUSH4 0xA9059CBB CALLER DUP5 PUSH1 0x40 MLOAD DUP4 PUSH4 0xFFFFFFFF AND PUSH1 0xE0 SHL DUP2 MSTORE PUSH1 0x4 ADD PUSH2 0x777 SWAP3 SWAP2 SWAP1 PUSH2 0x1EB7 JUMP JUMPDEST PUSH1 0x20 PUSH1 0x40 MLOAD DUP1 DUP4 SUB DUP2 PUSH0 DUP8 GAS CALL ISZERO DUP1 ISZERO PUSH2 0x793 JUMPI RETURNDATASIZE PUSH0 DUP1 RETURNDATACOPY RETURNDATASIZE PUSH0 REVERT JUMPDEST POP POP POP POP PUSH1 0x40 MLOAD RETURNDATASIZE PUSH1 0x1F NOT PUSH1 0x1F DUP3 ADD AND DUP3 ADD DUP1 PUSH1 0x40 MSTORE POP DUP2 ADD SWAP1 PUSH2 0x7B7 SWAP2 SWAP1 PUSH2 0x1F13 JUMP JUMPDEST POP DUP3 PUSH20 0xFFFFFFFFFFFFFFFFFFFFFFFFFFFFFFFFFFFFFFFF AND PUSH4 0xA9059CBB CALLER DUP4 PUSH1 0x40 MLOAD DUP4 PUSH4 0xFFFFFFFF AND PUSH1 0xE0 SHL DUP2 MSTORE PUSH1 0x4 ADD PUSH2 0x7F3 SWAP3 SWAP2 SWAP1 PUSH2 0x1EB7 JUMP JUMPDEST PUSH1 0x20 PUSH1 0x40 MLOAD DUP1 DUP4 SUB DUP2 PUSH0 DUP8 GAS CALL ISZERO DUP1 ISZERO PUSH2 0x80F JUMPI RETURNDATASIZE PUSH0 DUP1 RETURNDATACOPY RETURNDATASIZE PUSH0 REVERT JUMPDEST POP POP POP POP PUSH1 0x40 MLOAD RETURNDATASIZE PUSH1 0x1F NOT PUSH1 0x1F DUP3 ADD AND DUP3 ADD DUP1 PUSH1 0x40 MSTORE POP DUP2 ADD SWAP1 PUSH2 0x833 SWAP2 SWAP1 PUSH2 0x1F13 JUMP JUMPDEST POP POP POP POP POP JUMP JUMPDEST PUSH1 0x5 PUSH0 SWAP1 SLOAD SWAP1 PUSH2 0x100 EXP SWAP1 DIV PUSH20 0xFFFFFFFFFFFFFFFFFFFFFFFFFFFFFFFFFFFFFFFF AND DUP2 JUMP JUMPDEST PUSH0 PUSH1 0x4 PUSH0 DUP4 PUSH20 0xFFFFFFFFFFFFFFFFFFFFFFFFFFFFFFFFFFFFFFFF AND PUSH20 0xFFFFFFFFFFFFFFFFFFFFFFFFFFFFFFFFFFFFFFFF AND DUP2 MSTORE PUSH1 0x20 ADD SWAP1 DUP2 MSTORE PUSH1 0x20 ADD PUSH0 KECCAK256 SLOAD SWAP1 POP SWAP2 SWAP1 POP JUMP JUMPDEST PUSH0 DUP1 DUP4 GT DUP1 ISZERO PUSH2 0x8B4 JUMPI POP PUSH0 DUP3 GT JUMPDEST PUSH2 0x8F3 JUMPI PUSH1 0x40 MLOAD PUSH32 0x8C379A000000000000000000000000000000000000000000000000000000000 DUP2 MSTORE PUSH1 0x4 ADD PUSH2 0x8EA SWAP1 PUSH2 0x1F88 JUMP JUMPDEST PUSH1 0x40 MLOAD DUP1 SWAP2 SUB SWAP1 REVERT JUMPDEST PUSH0 DUP3 DUP6 PUSH2 0x900 SWAP2 SWAP1 PUSH2 0x1FA6 JUMP JUMPDEST SWAP1 POP PUSH0 DUP6 DUP6 PUSH2 0x90F SWAP2 SWAP1 PUSH2 0x1FE7 JUMP JUMPDEST SWAP1 POP DUP1 DUP3 PUSH2 0x91D SWAP2 SWAP1 PUSH2 0x2047 JUMP JUMPDEST SWAP3 POP POP POP SWAP4 SWAP3 POP POP POP JUMP JUMPDEST PUSH1 0x60 PUSH0 DUP3 SWAP1 POP DUP1 PUSH20 0xFFFFFFFFFFFFFFFFFFFFFFFFFFFFFFFFFFFFFFFF AND PUSH4 0x95D89B41 PUSH1 0x40 MLOAD DUP2 PUSH4 0xFFFFFFFF AND PUSH1 0xE0 SHL DUP2 MSTORE PUSH1 0x4 ADD PUSH0 PUSH1 0x40 MLOAD DUP1 DUP4 SUB DUP2 DUP7 GAS STATICCALL ISZERO DUP1 ISZERO PUSH2 0x976 JUMPI RETURNDATASIZE PUSH0 DUP1 RETURNDATACOPY RETURNDATASIZE PUSH0 REVERT JUMPDEST POP POP POP POP PUSH1 0x40 MLOAD RETURNDATASIZE PUSH0 DUP3 RETURNDATACOPY RETURNDATASIZE PUSH1 0x1F NOT PUSH1 0x1F DUP3 ADD AND DUP3 ADD DUP1 PUSH1 0x40 MSTORE POP DUP2 ADD SWAP1 PUSH2 0x99E SWAP2 SWAP1 PUSH2 0x2195 JUMP JUMPDEST SWAP2 POP POP SWAP2 SWAP1 POP JUMP JUMPDEST PUSH0 DUP2 DUP2 SLOAD DUP2 LT PUSH2 0x9B4 JUMPI PUSH0 DUP1 REVERT JUMPDEST SWAP1 PUSH0 MSTORE PUSH1 0x20 PUSH0 KECCAK256 SWAP1 PUSH1 0x2 MUL ADD PUSH0 SWAP2 POP SWAP1 POP DUP1 PUSH0 ADD PUSH0 SWAP1 SLOAD SWAP1 PUSH2 0x100 EXP SWAP1 DIV PUSH20 0xFFFFFFFFFFFFFFFFFFFFFFFFFFFFFFFFFFFFFFFF AND SWAP1 DUP1 PUSH1 0x1 ADD DUP1 SLOAD PUSH2 0x9F8 SWAP1 PUSH2 0x1D57 JUMP JUMPDEST DUP1 PUSH1 0x1F ADD PUSH1 0x20 DUP1 SWAP2 DIV MUL PUSH1 0x20 ADD PUSH1 0x40 MLOAD SWAP1 DUP2 ADD PUSH1 0x40 MSTORE DUP1 SWAP3 SWAP2 SWAP1 DUP2 DUP2 MSTORE PUSH1 0x20 ADD DUP3 DUP1 SLOAD PUSH2 0xA24 SWAP1 PUSH2 0x1D57 JUMP JUMPDEST DUP1 ISZERO PUSH2 0xA6F JUMPI DUP1 PUSH1 0x1F LT PUSH2 0xA46 JUMPI PUSH2 0x100 DUP1 DUP4 SLOAD DIV MUL DUP4 MSTORE SWAP2 PUSH1 0x20 ADD SWAP2 PUSH2 0xA6F JUMP JUMPDEST DUP3 ADD SWAP2 SWAP1 PUSH0 MSTORE PUSH1 0x20 PUSH0 KECCAK256 SWAP1 JUMPDEST DUP2 SLOAD DUP2 MSTORE SWAP1 PUSH1 0x1 ADD SWAP1 PUSH1 0x20 ADD DUP1 DUP4 GT PUSH2 0xA52 JUMPI DUP3 SWAP1 SUB PUSH1 0x1F AND DUP3 ADD SWAP2 JUMPDEST POP POP POP POP POP SWAP1 POP DUP3 JUMP JUMPDEST PUSH0 DUP2 PUSH1 0x40 MLOAD PUSH1 0x20 ADD PUSH2 0xA8B SWAP2 SWAP1 PUSH2 0x2221 JUMP JUMPDEST PUSH1 0x40 MLOAD PUSH1 0x20 DUP2 DUP4 SUB SUB DUP2 MSTORE SWAP1 PUSH1 0x40 MSTORE DUP1 MLOAD SWAP1 PUSH1 0x20 ADD KECCAK256 SWAP1 POP DUP1 PUSH1 0x4 PUSH0 DUP5 PUSH20 0xFFFFFFFFFFFFFFFFFFFFFFFFFFFFFFFFFFFFFFFF AND PUSH20 0xFFFFFFFFFFFFFFFFFFFFFFFFFFFFFFFFFFFFFFFF AND DUP2 MSTORE PUSH1 0x20 ADD SWAP1 DUP2 MSTORE PUSH1 0x20 ADD PUSH0 KECCAK256 DUP2 SWAP1 SSTORE POP POP POP JUMP JUMPDEST PUSH1 0x4 PUSH1 0x20 MSTORE DUP1 PUSH0 MSTORE PUSH1 0x40 PUSH0 KECCAK256 PUSH0 SWAP2 POP SWAP1 POP SLOAD DUP2 JUMP JUMPDEST PUSH1 0x3 PUSH1 0x20 MSTORE DUP1 PUSH0 MSTORE PUSH1 0x40 PUSH0 KECCAK256 PUSH0 SWAP2 POP SWAP1 POP SLOAD DUP2 JUMP JUMPDEST PUSH0 DUP3 GT DUP1 ISZERO PUSH2 0xB21 JUMPI POP PUSH0 DUP2 GT JUMPDEST PUSH2 0xB60 JUMPI PUSH1 0x40 MLOAD PUSH32 0x8C379A000000000000000000000000000000000000000000000000000000000 DUP2 MSTORE PUSH1 0x4 ADD PUSH2 0xB57 SWAP1 PUSH2 0x22AB JUMP JUMPDEST PUSH1 0x40 MLOAD DUP1 SWAP2 SUB SWAP1 REVERT JUMPDEST PUSH2 0xB69 DUP5 PUSH2 0x136A JUMP JUMPDEST PUSH2 0xB72 DUP4 PUSH2 0x136A JUMP JUMPDEST DUP4 PUSH20 0xFFFFFFFFFFFFFFFFFFFFFFFFFFFFFFFFFFFFFFFF AND PUSH4 0x23B872DD CALLER ADDRESS DUP6 PUSH1 0x40 MLOAD DUP5 PUSH4 0xFFFFFFFF AND PUSH1 0xE0 SHL DUP2 MSTORE PUSH1 0x4 ADD PUSH2 0xBAF SWAP4 SWAP3 SWAP2 SWAP1 PUSH2 0x22C9 JUMP JUMPDEST PUSH1 0x20 PUSH1 0x40 MLOAD DUP1 DUP4 SUB DUP2 PUSH0 DUP8 GAS CALL ISZERO DUP1 ISZERO PUSH2 0xBCB JUMPI RETURNDATASIZE PUSH0 DUP1 RETURNDATACOPY RETURNDATASIZE PUSH0 REVERT JUMPDEST POP POP POP POP PUSH1 0x40 MLOAD RETURNDATASIZE PUSH1 0x1F NOT PUSH1 0x1F DUP3 ADD AND DUP3 ADD DUP1 PUSH1 0x40 MSTORE POP DUP2 ADD SWAP1 PUSH2 0xBEF SWAP2 SWAP1 PUSH2 0x1F13 JUMP JUMPDEST POP DUP3 PUSH20 0xFFFFFFFFFFFFFFFFFFFFFFFFFFFFFFFFFFFFFFFF AND PUSH4 0x23B872DD CALLER ADDRESS DUP5 PUSH1 0x40 MLOAD DUP5 PUSH4 0xFFFFFFFF AND PUSH1 0xE0 SHL DUP2 MSTORE PUSH1 0x4 ADD PUSH2 0xC2D SWAP4 SWAP3 SWAP2 SWAP1 PUSH2 0x22C9 JUMP JUMPDEST PUSH1 0x20 PUSH1 0x40 MLOAD DUP1 DUP4 SUB DUP2 PUSH0 DUP8 GAS CALL ISZERO DUP1 ISZERO PUSH2 0xC49 JUMPI RETURNDATASIZE PUSH0 DUP1 RETURNDATACOPY RETURNDATASIZE PUSH0 REVERT JUMPDEST POP POP POP POP PUSH1 0x40 MLOAD RETURNDATASIZE PUSH1 0x1F NOT PUSH1 0x1F DUP3 ADD AND DUP3 ADD DUP1 PUSH1 0x40 MSTORE POP DUP2 ADD SWAP1 PUSH2 0xC6D SWAP2 SWAP1 PUSH2 0x1F13 JUMP JUMPDEST POP DUP2 PUSH1 0x1 PUSH0 DUP7 PUSH20 0xFFFFFFFFFFFFFFFFFFFFFFFFFFFFFFFFFFFFFFFF AND PUSH20 0xFFFFFFFFFFFFFFFFFFFFFFFFFFFFFFFFFFFFFFFF AND DUP2 MSTORE PUSH1 0x20 ADD SWAP1 DUP2 MSTORE PUSH1 0x20 ADD PUSH0 KECCAK256 PUSH0 DUP6 PUSH20 0xFFFFFFFFFFFFFFFFFFFFFFFFFFFFFFFFFFFFFFFF AND PUSH20 0xFFFFFFFFFFFFFFFFFFFFFFFFFFFFFFFFFFFFFFFF AND DUP2 MSTORE PUSH1 0x20 ADD SWAP1 DUP2 MSTORE PUSH1 0x20 ADD PUSH0 KECCAK256 PUSH0 DUP3 DUP3 SLOAD PUSH2 0xCF5 SWAP2 SWAP1 PUSH2 0x1FE7 JUMP JUMPDEST SWAP3 POP POP DUP2 SWAP1 SSTORE POP DUP1 PUSH1 0x1 PUSH0 DUP6 PUSH20 0xFFFFFFFFFFFFFFFFFFFFFFFFFFFFFFFFFFFFFFFF AND PUSH20 0xFFFFFFFFFFFFFFFFFFFFFFFFFFFFFFFFFFFFFFFF AND DUP2 MSTORE PUSH1 0x20 ADD SWAP1 DUP2 MSTORE PUSH1 0x20 ADD PUSH0 KECCAK256 PUSH0 DUP7 PUSH20 0xFFFFFFFFFFFFFFFFFFFFFFFFFFFFFFFFFFFFFFFF AND PUSH20 0xFFFFFFFFFFFFFFFFFFFFFFFFFFFFFFFFFFFFFFFF AND DUP2 MSTORE PUSH1 0x20 ADD SWAP1 DUP2 MSTORE PUSH1 0x20 ADD PUSH0 KECCAK256 PUSH0 DUP3 DUP3 SLOAD PUSH2 0xD83 SWAP2 SWAP1 PUSH2 0x1FE7 JUMP JUMPDEST SWAP3 POP POP DUP2 SWAP1 SSTORE POP PUSH2 0xD93 CALLER PUSH2 0x1436 JUMP JUMPDEST POP POP POP POP JUMP JUMPDEST PUSH0 DUP1 DUP3 GT PUSH2 0xDDC JUMPI PUSH1 0x40 MLOAD PUSH32 0x8C379A000000000000000000000000000000000000000000000000000000000 DUP2 MSTORE PUSH1 0x4 ADD PUSH2 0xDD3 SWAP1 PUSH2 0x2348 JUMP JUMPDEST PUSH1 0x40 MLOAD DUP1 SWAP2 SUB SWAP1 REVERT JUMPDEST PUSH0 PUSH1 0x1 PUSH0 DUP7 PUSH20 0xFFFFFFFFFFFFFFFFFFFFFFFFFFFFFFFFFFFFFFFF AND PUSH20 0xFFFFFFFFFFFFFFFFFFFFFFFFFFFFFFFFFFFFFFFF AND DUP2 MSTORE PUSH1 0x20 ADD SWAP1 DUP2 MSTORE PUSH1 0x20 ADD PUSH0 KECCAK256 PUSH0 DUP6 PUSH20 0xFFFFFFFFFFFFFFFFFFFFFFFFFFFFFFFFFFFFFFFF AND PUSH20 0xFFFFFFFFFFFFFFFFFFFFFFFFFFFFFFFFFFFFFFFF AND DUP2 MSTORE PUSH1 0x20 ADD SWAP1 DUP2 MSTORE PUSH1 0x20 ADD PUSH0 KECCAK256 SLOAD SWAP1 POP PUSH0 PUSH1 0x1 PUSH0 DUP7 PUSH20 0xFFFFFFFFFFFFFFFFFFFFFFFFFFFFFFFFFFFFFFFF AND PUSH20 0xFFFFFFFFFFFFFFFFFFFFFFFFFFFFFFFFFFFFFFFF AND DUP2 MSTORE PUSH1 0x20 ADD SWAP1 DUP2 MSTORE PUSH1 0x20 ADD PUSH0 KECCAK256 PUSH0 DUP8 PUSH20 0xFFFFFFFFFFFFFFFFFFFFFFFFFFFFFFFFFFFFFFFF AND PUSH20 0xFFFFFFFFFFFFFFFFFFFFFFFFFFFFFFFFFFFFFFFF AND DUP2 MSTORE PUSH1 0x20 ADD SWAP1 DUP2 MSTORE PUSH1 0x20 ADD PUSH0 KECCAK256 SLOAD SWAP1 POP PUSH0 DUP3 GT DUP1 ISZERO PUSH2 0xEE2 JUMPI POP PUSH0 DUP2 GT JUMPDEST PUSH2 0xF21 JUMPI PUSH1 0x40 MLOAD PUSH32 0x8C379A000000000000000000000000000000000000000000000000000000000 DUP2 MSTORE PUSH1 0x4 ADD PUSH2 0xF18 SWAP1 PUSH2 0x23B0 JUMP JUMPDEST PUSH1 0x40 MLOAD DUP1 SWAP2 SUB SWAP1 REVERT JUMPDEST PUSH0 PUSH3 0x186A0 PUSH1 0x1 DUP7 PUSH2 0xF33 SWAP2 SWAP1 PUSH2 0x1FA6 JUMP JUMPDEST PUSH2 0xF3D SWAP2 SWAP1 PUSH2 0x2047 JUMP JUMPDEST SWAP1 POP PUSH0 DUP2 DUP7 PUSH2 0xF4C SWAP2 SWAP1 PUSH2 0x1E84 JUMP JUMPDEST SWAP1 POP PUSH2 0xF59 DUP2 DUP6 DUP6 PUSH2 0x8A5 JUMP JUMPDEST SWAP5 POP DUP5 DUP8 PUSH20 0xFFFFFFFFFFFFFFFFFFFFFFFFFFFFFFFFFFFFFFFF AND PUSH4 0x70A08231 ADDRESS PUSH1 0x40 MLOAD DUP3 PUSH4 0xFFFFFFFF AND PUSH1 0xE0 SHL DUP2 MSTORE PUSH1 0x4 ADD PUSH2 0xF95 SWAP2 SWAP1 PUSH2 0x23CE JUMP JUMPDEST PUSH1 0x20 PUSH1 0x40 MLOAD DUP1 DUP4 SUB DUP2 DUP7 GAS STATICCALL ISZERO DUP1 ISZERO PUSH2 0xFB0 JUMPI RETURNDATASIZE PUSH0 DUP1 RETURNDATACOPY RETURNDATASIZE PUSH0 REVERT JUMPDEST POP POP POP POP PUSH1 0x40 MLOAD RETURNDATASIZE PUSH1 0x1F NOT PUSH1 0x1F DUP3 ADD AND DUP3 ADD DUP1 PUSH1 0x40 MSTORE POP DUP2 ADD SWAP1 PUSH2 0xFD4 SWAP2 SWAP1 PUSH2 0x23FB JUMP JUMPDEST LT ISZERO PUSH2 0x1015 JUMPI PUSH1 0x40 MLOAD PUSH32 0x8C379A000000000000000000000000000000000000000000000000000000000 DUP2 MSTORE PUSH1 0x4 ADD PUSH2 0x100C SWAP1 PUSH2 0x23B0 JUMP JUMPDEST PUSH1 0x40 MLOAD DUP1 SWAP2 SUB SWAP1 REVERT JUMPDEST DUP8 PUSH20 0xFFFFFFFFFFFFFFFFFFFFFFFFFFFFFFFFFFFFFFFF AND PUSH4 0x23B872DD CALLER ADDRESS DUP10 PUSH1 0x40 MLOAD DUP5 PUSH4 0xFFFFFFFF AND PUSH1 0xE0 SHL DUP2 MSTORE PUSH1 0x4 ADD PUSH2 0x1052 SWAP4 SWAP3 SWAP2 SWAP1 PUSH2 0x22C9 JUMP JUMPDEST PUSH1 0x20 PUSH1 0x40 MLOAD DUP1 DUP4 SUB DUP2 PUSH0 DUP8 GAS CALL ISZERO DUP1 ISZERO PUSH2 0x106E JUMPI RETURNDATASIZE PUSH0 DUP1 RETURNDATACOPY RETURNDATASIZE PUSH0 REVERT JUMPDEST POP POP POP POP PUSH1 0x40 MLOAD RETURNDATASIZE PUSH1 0x1F NOT PUSH1 0x1F DUP3 ADD AND DUP3 ADD DUP1 PUSH1 0x40 MSTORE POP DUP2 ADD SWAP1 PUSH2 0x1092 SWAP2 SWAP1 PUSH2 0x1F13 JUMP JUMPDEST POP DUP7 PUSH20 0xFFFFFFFFFFFFFFFFFFFFFFFFFFFFFFFFFFFFFFFF AND PUSH4 0xA9059CBB CALLER DUP8 PUSH1 0x40 MLOAD DUP4 PUSH4 0xFFFFFFFF AND PUSH1 0xE0 SHL DUP2 MSTORE PUSH1 0x4 ADD PUSH2 0x10CE SWAP3 SWAP2 SWAP1 PUSH2 0x1EB7 JUMP JUMPDEST PUSH1 0x20 PUSH1 0x40 MLOAD DUP1 DUP4 SUB DUP2 PUSH0 DUP8 GAS CALL ISZERO DUP1 ISZERO PUSH2 0x10EA JUMPI RETURNDATASIZE PUSH0 DUP1 RETURNDATACOPY RETURNDATASIZE PUSH0 REVERT JUMPDEST POP POP POP POP PUSH1 0x40 MLOAD RETURNDATASIZE PUSH1 0x1F NOT PUSH1 0x1F DUP3 ADD AND DUP3 ADD DUP1 PUSH1 0x40 MSTORE POP DUP2 ADD SWAP1 PUSH2 0x110E SWAP2 SWAP1 PUSH2 0x1F13 JUMP JUMPDEST POP DUP6 PUSH1 0x1 PUSH0 DUP11 PUSH20 0xFFFFFFFFFFFFFFFFFFFFFFFFFFFFFFFFFFFFFFFF AND PUSH20 0xFFFFFFFFFFFFFFFFFFFFFFFFFFFFFFFFFFFFFFFF AND DUP2 MSTORE PUSH1 0x20 ADD SWAP1 DUP2 MSTORE PUSH1 0x20 ADD PUSH0 KECCAK256 PUSH0 DUP10 PUSH20 0xFFFFFFFFFFFFFFFFFFFFFFFFFFFFFFFFFFFFFFFF AND PUSH20 0xFFFFFFFFFFFFFFFFFFFFFFFFFFFFFFFFFFFFFFFF AND DUP2 MSTORE PUSH1 0x20 ADD SWAP1 DUP2 MSTORE PUSH1 0x20 ADD PUSH0 KECCAK256 PUSH0 DUP3 DUP3 SLOAD PUSH2 0x1196 SWAP2 SWAP1 PUSH2 0x1FE7 JUMP JUMPDEST SWAP3 POP POP DUP2 SWAP1 SSTORE POP DUP5 PUSH1 0x1 PUSH0 DUP10 PUSH20 0xFFFFFFFFFFFFFFFFFFFFFFFFFFFFFFFFFFFFFFFF AND PUSH20 0xFFFFFFFFFFFFFFFFFFFFFFFFFFFFFFFFFFFFFFFF AND DUP2 MSTORE PUSH1 0x20 ADD SWAP1 DUP2 MSTORE PUSH1 0x20 ADD PUSH0 KECCAK256 PUSH0 DUP11 PUSH20 0xFFFFFFFFFFFFFFFFFFFFFFFFFFFFFFFFFFFFFFFF AND PUSH20 0xFFFFFFFFFFFFFFFFFFFFFFFFFFFFFFFFFFFFFFFF AND DUP2 MSTORE PUSH1 0x20 ADD SWAP1 DUP2 MSTORE PUSH1 0x20 ADD PUSH0 KECCAK256 PUSH0 DUP3 DUP3 SLOAD PUSH2 0x1224 SWAP2 SWAP1 PUSH2 0x1E84 JUMP JUMPDEST SWAP3 POP POP DUP2 SWAP1 SSTORE POP DUP8 PUSH20 0xFFFFFFFFFFFFFFFFFFFFFFFFFFFFFFFFFFFFFFFF AND PUSH4 0xA9059CBB PUSH1 0x5 PUSH0 SWAP1 SLOAD SWAP1 PUSH2 0x100 EXP SWAP1 DIV PUSH20 0xFFFFFFFFFFFFFFFFFFFFFFFFFFFFFFFFFFFFFFFF AND PUSH20 0xFFFFFFFFFFFFFFFFFFFFFFFFFFFFFFFFFFFFFFFF AND PUSH4 0x8DA5CB5B PUSH1 0x40 MLOAD DUP2 PUSH4 0xFFFFFFFF AND PUSH1 0xE0 SHL DUP2 MSTORE PUSH1 0x4 ADD PUSH1 0x20 PUSH1 0x40 MLOAD DUP1 DUP4 SUB DUP2 DUP7 GAS STATICCALL ISZERO DUP1 ISZERO PUSH2 0x12B1 JUMPI RETURNDATASIZE PUSH0 DUP1 RETURNDATACOPY RETURNDATASIZE PUSH0 REVERT JUMPDEST POP POP POP POP PUSH1 0x40 MLOAD RETURNDATASIZE PUSH1 0x1F NOT PUSH1 0x1F DUP3 ADD AND DUP3 ADD DUP1 PUSH1 0x40 MSTORE POP DUP2 ADD SWAP1 PUSH2 0x12D5 SWAP2 SWAP1 PUSH2 0x243A JUMP JUMPDEST DUP5 PUSH1 0x40 MLOAD DUP4 PUSH4 0xFFFFFFFF AND PUSH1 0xE0 SHL DUP2 MSTORE PUSH1 0x4 ADD PUSH2 0x12F3 SWAP3 SWAP2 SWAP1 PUSH2 0x1EB7 JUMP JUMPDEST PUSH1 0x20 PUSH1 0x40 MLOAD DUP1 DUP4 SUB DUP2 PUSH0 DUP8 GAS CALL ISZERO DUP1 ISZERO PUSH2 0x130F JUMPI RETURNDATASIZE PUSH0 DUP1 RETURNDATACOPY RETURNDATASIZE PUSH0 REVERT JUMPDEST POP POP POP POP PUSH1 0x40 MLOAD RETURNDATASIZE PUSH1 0x1F NOT PUSH1 0x1F DUP3 ADD AND DUP3 ADD DUP1 PUSH1 0x40 MSTORE POP DUP2 ADD SWAP1 PUSH2 0x1333 SWAP2 SWAP1 PUSH2 0x1F13 JUMP JUMPDEST POP POP POP POP POP SWAP4 SWAP3 POP POP POP JUMP JUMPDEST PUSH1 0x1 PUSH1 0x20 MSTORE DUP2 PUSH0 MSTORE PUSH1 0x40 PUSH0 KECCAK256 PUSH1 0x20 MSTORE DUP1 PUSH0 MSTORE PUSH1 0x40 PUSH0 KECCAK256 PUSH0 SWAP2 POP SWAP2 POP POP SLOAD DUP2 JUMP JUMPDEST PUSH7 0x2386F26FC10000 DUP2 JUMP JUMPDEST PUSH2 0x1373 DUP2 PUSH2 0x172E JUMP JUMPDEST PUSH2 0x1433 JUMPI PUSH0 PUSH2 0x1381 DUP3 PUSH2 0x928 JUMP JUMPDEST SWAP1 POP PUSH0 PUSH1 0x40 MLOAD DUP1 PUSH1 0x40 ADD PUSH1 0x40 MSTORE DUP1 DUP5 PUSH20 0xFFFFFFFFFFFFFFFFFFFFFFFFFFFFFFFFFFFFFFFF AND DUP2 MSTORE PUSH1 0x20 ADD DUP4 DUP2 MSTORE POP SWAP1 DUP1 PUSH1 0x1 DUP2 SLOAD ADD DUP1 DUP3 SSTORE DUP1 SWAP2 POP POP PUSH1 0x1 SWAP1 SUB SWAP1 PUSH0 MSTORE PUSH1 0x20 PUSH0 KECCAK256 SWAP1 PUSH1 0x2 MUL ADD PUSH0 SWAP1 SWAP2 SWAP1 SWAP2 SWAP1 SWAP2 POP PUSH0 DUP3 ADD MLOAD DUP2 PUSH0 ADD PUSH0 PUSH2 0x100 EXP DUP2 SLOAD DUP2 PUSH20 0xFFFFFFFFFFFFFFFFFFFFFFFFFFFFFFFFFFFFFFFF MUL NOT AND SWAP1 DUP4 PUSH20 0xFFFFFFFFFFFFFFFFFFFFFFFFFFFFFFFFFFFFFFFF AND MUL OR SWAP1 SSTORE POP PUSH1 0x20 DUP3 ADD MLOAD DUP2 PUSH1 0x1 ADD SWAP1 DUP2 PUSH2 0x142E SWAP2 SWAP1 PUSH2 0x25F9 JUMP JUMPDEST POP POP POP POP JUMPDEST POP JUMP JUMPDEST PUSH0 PUSH3 0x15180 TIMESTAMP PUSH2 0x1446 SWAP2 SWAP1 PUSH2 0x2047 JUMP JUMPDEST SWAP1 POP DUP1 PUSH1 0x2 PUSH0 DUP5 PUSH20 0xFFFFFFFFFFFFFFFFFFFFFFFFFFFFFFFFFFFFFFFF AND PUSH20 0xFFFFFFFFFFFFFFFFFFFFFFFFFFFFFFFFFFFFFFFF AND DUP2 MSTORE PUSH1 0x20 ADD SWAP1 DUP2 MSTORE PUSH1 0x20 ADD PUSH0 KECCAK256 SLOAD LT ISZERO PUSH2 0x1512 JUMPI PUSH0 PUSH1 0x3 PUSH0 DUP5 PUSH20 0xFFFFFFFFFFFFFFFFFFFFFFFFFFFFFFFFFFFFFFFF AND PUSH20 0xFFFFFFFFFFFFFFFFFFFFFFFFFFFFFFFFFFFFFFFF AND DUP2 MSTORE PUSH1 0x20 ADD SWAP1 DUP2 MSTORE PUSH1 0x20 ADD PUSH0 KECCAK256 DUP2 SWAP1 SSTORE POP DUP1 PUSH1 0x2 PUSH0 DUP5 PUSH20 0xFFFFFFFFFFFFFFFFFFFFFFFFFFFFFFFFFFFFFFFF AND PUSH20 0xFFFFFFFFFFFFFFFFFFFFFFFFFFFFFFFFFFFFFFFF AND DUP2 MSTORE PUSH1 0x20 ADD SWAP1 DUP2 MSTORE PUSH1 0x20 ADD PUSH0 KECCAK256 DUP2 SWAP1 SSTORE POP JUMPDEST PUSH7 0xB1A2BC2EC50000 PUSH1 0x3 PUSH0 DUP5 PUSH20 0xFFFFFFFFFFFFFFFFFFFFFFFFFFFFFFFFFFFFFFFF AND PUSH20 0xFFFFFFFFFFFFFFFFFFFFFFFFFFFFFFFFFFFFFFFF AND DUP2 MSTORE PUSH1 0x20 ADD SWAP1 DUP2 MSTORE PUSH1 0x20 ADD PUSH0 KECCAK256 SLOAD LT PUSH2 0x1598 JUMPI PUSH1 0x40 MLOAD PUSH32 0x8C379A000000000000000000000000000000000000000000000000000000000 DUP2 MSTORE PUSH1 0x4 ADD PUSH2 0x158F SWAP1 PUSH2 0x2712 JUMP JUMPDEST PUSH1 0x40 MLOAD DUP1 SWAP2 SUB SWAP1 REVERT JUMPDEST PUSH0 PUSH7 0x2386F26FC10000 SWAP1 POP PUSH7 0xB1A2BC2EC50000 DUP2 PUSH1 0x3 PUSH0 DUP7 PUSH20 0xFFFFFFFFFFFFFFFFFFFFFFFFFFFFFFFFFFFFFFFF AND PUSH20 0xFFFFFFFFFFFFFFFFFFFFFFFFFFFFFFFFFFFFFFFF AND DUP2 MSTORE PUSH1 0x20 ADD SWAP1 DUP2 MSTORE PUSH1 0x20 ADD PUSH0 KECCAK256 SLOAD PUSH2 0x15F4 SWAP2 SWAP1 PUSH2 0x1FE7 JUMP JUMPDEST GT ISZERO PUSH2 0x164D JUMPI PUSH1 0x3 PUSH0 DUP5 PUSH20 0xFFFFFFFFFFFFFFFFFFFFFFFFFFFFFFFFFFFFFFFF AND PUSH20 0xFFFFFFFFFFFFFFFFFFFFFFFFFFFFFFFFFFFFFFFF AND DUP2 MSTORE PUSH1 0x20 ADD SWAP1 DUP2 MSTORE PUSH1 0x20 ADD PUSH0 KECCAK256 SLOAD PUSH7 0xB1A2BC2EC50000 PUSH2 0x164A SWAP2 SWAP1 PUSH2 0x1E84 JUMP JUMPDEST SWAP1 POP JUMPDEST DUP1 PUSH1 0x3 PUSH0 DUP6 PUSH20 0xFFFFFFFFFFFFFFFFFFFFFFFFFFFFFFFFFFFFFFFF AND PUSH20 0xFFFFFFFFFFFFFFFFFFFFFFFFFFFFFFFFFFFFFFFF AND DUP2 MSTORE PUSH1 0x20 ADD SWAP1 DUP2 MSTORE PUSH1 0x20 ADD PUSH0 KECCAK256 PUSH0 DUP3 DUP3 SLOAD PUSH2 0x1699 SWAP2 SWAP1 PUSH2 0x1FE7 JUMP JUMPDEST SWAP3 POP POP DUP2 SWAP1 SSTORE POP PUSH1 0x5 PUSH0 SWAP1 SLOAD SWAP1 PUSH2 0x100 EXP SWAP1 DIV PUSH20 0xFFFFFFFFFFFFFFFFFFFFFFFFFFFFFFFFFFFFFFFF AND PUSH20 0xFFFFFFFFFFFFFFFFFFFFFFFFFFFFFFFFFFFFFFFF AND PUSH4 0x219A714 DUP5 DUP4 PUSH1 0x40 MLOAD DUP4 PUSH4 0xFFFFFFFF AND PUSH1 0xE0 SHL DUP2 MSTORE PUSH1 0x4 ADD PUSH2 0x16FC SWAP3 SWAP2 SWAP1 PUSH2 0x1EB7 JUMP JUMPDEST PUSH0 PUSH1 0x40 MLOAD DUP1 DUP4 SUB DUP2 PUSH0 DUP8 DUP1 EXTCODESIZE ISZERO DUP1 ISZERO PUSH2 0x1713 JUMPI PUSH0 DUP1 REVERT JUMPDEST POP GAS CALL ISZERO DUP1 ISZERO PUSH2 0x1725 JUMPI RETURNDATASIZE PUSH0 DUP1 RETURNDATACOPY RETURNDATASIZE PUSH0 REVERT JUMPDEST POP POP POP POP POP POP POP JUMP JUMPDEST PUSH0 DUP1 PUSH0 SWAP1 POP JUMPDEST PUSH0 DUP1 SLOAD SWAP1 POP DUP2 LT ISZERO PUSH2 0x17CA JUMPI DUP3 PUSH20 0xFFFFFFFFFFFFFFFFFFFFFFFFFFFFFFFFFFFFFFFF AND PUSH0 DUP3 DUP2 SLOAD DUP2 LT PUSH2 0x176A JUMPI PUSH2 0x1769 PUSH2 0x2730 JUMP JUMPDEST JUMPDEST SWAP1 PUSH0 MSTORE PUSH1 0x20 PUSH0 KECCAK256 SWAP1 PUSH1 0x2 MUL ADD PUSH0 ADD PUSH0 SWAP1 SLOAD SWAP1 PUSH2 0x100 EXP SWAP1 DIV PUSH20 0xFFFFFFFFFFFFFFFFFFFFFFFFFFFFFFFFFFFFFFFF AND PUSH20 0xFFFFFFFFFFFFFFFFFFFFFFFFFFFFFFFFFFFFFFFF AND SUB PUSH2 0x17BD JUMPI PUSH1 0x1 SWAP2 POP POP PUSH2 0x17CF JUMP JUMPDEST DUP1 DUP1 PUSH1 0x1 ADD SWAP2 POP POP PUSH2 0x1734 JUMP JUMPDEST POP PUSH0 SWAP1 POP JUMPDEST SWAP2 SWAP1 POP JUMP JUMPDEST PUSH0 PUSH1 0x40 MLOAD SWAP1 POP SWAP1 JUMP JUMPDEST PUSH0 DUP1 REVERT JUMPDEST PUSH0 DUP1 REVERT JUMPDEST PUSH0 PUSH20 0xFFFFFFFFFFFFFFFFFFFFFFFFFFFFFFFFFFFFFFFF DUP3 AND SWAP1 POP SWAP2 SWAP1 POP JUMP JUMPDEST PUSH0 PUSH2 0x180E DUP3 PUSH2 0x17E5 JUMP JUMPDEST SWAP1 POP SWAP2 SWAP1 POP JUMP JUMPDEST PUSH2 0x181E DUP2 PUSH2 0x1804 JUMP JUMPDEST DUP2 EQ PUSH2 0x1828 JUMPI PUSH0 DUP1 REVERT JUMPDEST POP JUMP JUMPDEST PUSH0 DUP2 CALLDATALOAD SWAP1 POP PUSH2 0x1839 DUP2 PUSH2 0x1815 JUMP JUMPDEST SWAP3 SWAP2 POP POP JUMP JUMPDEST PUSH0 PUSH1 0x20 DUP3 DUP5 SUB SLT ISZERO PUSH2 0x1854 JUMPI PUSH2 0x1853 PUSH2 0x17DD JUMP JUMPDEST JUMPDEST PUSH0 PUSH2 0x1861 DUP5 DUP3 DUP6 ADD PUSH2 0x182B JUMP JUMPDEST SWAP2 POP POP SWAP3 SWAP2 POP POP JUMP JUMPDEST PUSH0 DUP2 SWAP1 POP SWAP2 SWAP1 POP JUMP JUMPDEST PUSH2 0x187C DUP2 PUSH2 0x186A JUMP JUMPDEST DUP3 MSTORE POP POP JUMP JUMPDEST PUSH0 PUSH1 0x20 DUP3 ADD SWAP1 POP PUSH2 0x1895 PUSH0 DUP4 ADD DUP5 PUSH2 0x1873 JUMP JUMPDEST SWAP3 SWAP2 POP POP JUMP JUMPDEST PUSH0 DUP2 MLOAD SWAP1 POP SWAP2 SWAP1 POP JUMP JUMPDEST PUSH0 DUP3 DUP3 MSTORE PUSH1 0x20 DUP3 ADD SWAP1 POP SWAP3 SWAP2 POP POP JUMP JUMPDEST PUSH0 DUP2 SWAP1 POP PUSH1 0x20 DUP3 ADD SWAP1 POP SWAP2 SWAP1 POP JUMP JUMPDEST PUSH2 0x18CD DUP2 PUSH2 0x1804 JUMP JUMPDEST DUP3 MSTORE POP POP JUMP JUMPDEST PUSH0 DUP2 MLOAD SWAP1 POP SWAP2 SWAP1 POP JUMP JUMPDEST PUSH0 DUP3 DUP3 MSTORE PUSH1 0x20 DUP3 ADD SWAP1 POP SWAP3 SWAP2 POP POP JUMP JUMPDEST PUSH0 JUMPDEST DUP4 DUP2 LT ISZERO PUSH2 0x190A JUMPI DUP1 DUP3 ADD MLOAD DUP2 DUP5 ADD MSTORE PUSH1 0x20 DUP2 ADD SWAP1 POP PUSH2 0x18EF JUMP JUMPDEST PUSH0 DUP5 DUP5 ADD MSTORE POP POP POP POP JUMP JUMPDEST PUSH0 PUSH1 0x1F NOT PUSH1 0x1F DUP4 ADD AND SWAP1 POP SWAP2 SWAP1 POP JUMP JUMPDEST PUSH0 PUSH2 0x192F DUP3 PUSH2 0x18D3 JUMP JUMPDEST PUSH2 0x1939 DUP2 DUP6 PUSH2 0x18DD JUMP JUMPDEST SWAP4 POP PUSH2 0x1949 DUP2 DUP6 PUSH1 0x20 DUP7 ADD PUSH2 0x18ED JUMP JUMPDEST PUSH2 0x1952 DUP2 PUSH2 0x1915 JUMP JUMPDEST DUP5 ADD SWAP2 POP POP SWAP3 SWAP2 POP POP JUMP JUMPDEST PUSH0 PUSH1 0x40 DUP4 ADD PUSH0 DUP4 ADD MLOAD PUSH2 0x1972 PUSH0 DUP7 ADD DUP3 PUSH2 0x18C4 JUMP JUMPDEST POP PUSH1 0x20 DUP4 ADD MLOAD DUP5 DUP3 SUB PUSH1 0x20 DUP7 ADD MSTORE PUSH2 0x198A DUP3 DUP3 PUSH2 0x1925 JUMP JUMPDEST SWAP2 POP POP DUP1 SWAP2 POP POP SWAP3 SWAP2 POP POP JUMP JUMPDEST PUSH0 PUSH2 0x19A2 DUP4 DUP4 PUSH2 0x195D JUMP JUMPDEST SWAP1 POP SWAP3 SWAP2 POP POP JUMP JUMPDEST PUSH0 PUSH1 0x20 DUP3 ADD SWAP1 POP SWAP2 SWAP1 POP JUMP JUMPDEST PUSH0 PUSH2 0x19C0 DUP3 PUSH2 0x189B JUMP JUMPDEST PUSH2 0x19CA DUP2 DUP6 PUSH2 0x18A5 JUMP JUMPDEST SWAP4 POP DUP4 PUSH1 0x20 DUP3 MUL DUP6 ADD PUSH2 0x19DC DUP6 PUSH2 0x18B5 JUMP JUMPDEST DUP1 PUSH0 JUMPDEST DUP6 DUP2 LT ISZERO PUSH2 0x1A17 JUMPI DUP5 DUP5 SUB DUP10 MSTORE DUP2 MLOAD PUSH2 0x19F8 DUP6 DUP3 PUSH2 0x1997 JUMP JUMPDEST SWAP5 POP PUSH2 0x1A03 DUP4 PUSH2 0x19AA JUMP JUMPDEST SWAP3 POP PUSH1 0x20 DUP11 ADD SWAP10 POP POP PUSH1 0x1 DUP2 ADD SWAP1 POP PUSH2 0x19DF JUMP JUMPDEST POP DUP3 SWAP8 POP DUP8 SWAP6 POP POP POP POP POP POP SWAP3 SWAP2 POP POP JUMP JUMPDEST PUSH0 PUSH1 0x20 DUP3 ADD SWAP1 POP DUP2 DUP2 SUB PUSH0 DUP4 ADD MSTORE PUSH2 0x1A41 DUP2 DUP5 PUSH2 0x19B6 JUMP JUMPDEST SWAP1 POP SWAP3 SWAP2 POP POP JUMP JUMPDEST PUSH2 0x1A52 DUP2 PUSH2 0x186A JUMP JUMPDEST DUP2 EQ PUSH2 0x1A5C JUMPI PUSH0 DUP1 REVERT JUMPDEST POP JUMP JUMPDEST PUSH0 DUP2 CALLDATALOAD SWAP1 POP PUSH2 0x1A6D DUP2 PUSH2 0x1A49 JUMP JUMPDEST SWAP3 SWAP2 POP POP JUMP JUMPDEST PUSH0 DUP1 PUSH0 DUP1 PUSH1 0x80 DUP6 DUP8 SUB SLT ISZERO PUSH2 0x1A8B JUMPI PUSH2 0x1A8A PUSH2 0x17DD JUMP JUMPDEST JUMPDEST PUSH0 PUSH2 0x1A98 DUP8 DUP3 DUP9 ADD PUSH2 0x182B JUMP JUMPDEST SWAP5 POP POP PUSH1 0x20 PUSH2 0x1AA9 DUP8 DUP3 DUP9 ADD PUSH2 0x182B JUMP JUMPDEST SWAP4 POP POP PUSH1 0x40 PUSH2 0x1ABA DUP8 DUP3 DUP9 ADD PUSH2 0x1A5F JUMP JUMPDEST SWAP3 POP POP PUSH1 0x60 PUSH2 0x1ACB DUP8 DUP3 DUP9 ADD PUSH2 0x1A5F JUMP JUMPDEST SWAP2 POP POP SWAP3 SWAP6 SWAP2 SWAP5 POP SWAP3 POP JUMP JUMPDEST PUSH0 DUP2 SWAP1 POP SWAP2 SWAP1 POP JUMP JUMPDEST PUSH0 PUSH2 0x1AFA PUSH2 0x1AF5 PUSH2 0x1AF0 DUP5 PUSH2 0x17E5 JUMP JUMPDEST PUSH2 0x1AD7 JUMP JUMPDEST PUSH2 0x17E5 JUMP JUMPDEST SWAP1 POP SWAP2 SWAP1 POP JUMP JUMPDEST PUSH0 PUSH2 0x1B0B DUP3 PUSH2 0x1AE0 JUMP JUMPDEST SWAP1 POP SWAP2 SWAP1 POP JUMP JUMPDEST PUSH0 PUSH2 0x1B1C DUP3 PUSH2 0x1B01 JUMP JUMPDEST SWAP1 POP SWAP2 SWAP1 POP JUMP JUMPDEST PUSH2 0x1B2C DUP2 PUSH2 0x1B12 JUMP JUMPDEST DUP3 MSTORE POP POP JUMP JUMPDEST PUSH0 PUSH1 0x20 DUP3 ADD SWAP1 POP PUSH2 0x1B45 PUSH0 DUP4 ADD DUP5 PUSH2 0x1B23 JUMP JUMPDEST SWAP3 SWAP2 POP POP JUMP JUMPDEST PUSH0 DUP2 SWAP1 POP SWAP2 SWAP1 POP JUMP JUMPDEST PUSH2 0x1B5D DUP2 PUSH2 0x1B4B JUMP JUMPDEST DUP3 MSTORE POP POP JUMP JUMPDEST PUSH0 PUSH1 0x20 DUP3 ADD SWAP1 POP PUSH2 0x1B76 PUSH0 DUP4 ADD DUP5 PUSH2 0x1B54 JUMP JUMPDEST SWAP3 SWAP2 POP POP JUMP JUMPDEST PUSH0 DUP1 PUSH0 PUSH1 0x60 DUP5 DUP7 SUB SLT ISZERO PUSH2 0x1B93 JUMPI PUSH2 0x1B92 PUSH2 0x17DD JUMP JUMPDEST JUMPDEST PUSH0 PUSH2 0x1BA0 DUP7 DUP3 DUP8 ADD PUSH2 0x1A5F JUMP JUMPDEST SWAP4 POP POP PUSH1 0x20 PUSH2 0x1BB1 DUP7 DUP3 DUP8 ADD PUSH2 0x1A5F JUMP JUMPDEST SWAP3 POP POP PUSH1 0x40 PUSH2 0x1BC2 DUP7 DUP3 DUP8 ADD PUSH2 0x1A5F JUMP JUMPDEST SWAP2 POP POP SWAP3 POP SWAP3 POP SWAP3 JUMP JUMPDEST PUSH0 DUP3 DUP3 MSTORE PUSH1 0x20 DUP3 ADD SWAP1 POP SWAP3 SWAP2 POP POP JUMP JUMPDEST PUSH0 PUSH2 0x1BE6 DUP3 PUSH2 0x18D3 JUMP JUMPDEST PUSH2 0x1BF0 DUP2 DUP6 PUSH2 0x1BCC JUMP JUMPDEST SWAP4 POP PUSH2 0x1C00 DUP2 DUP6 PUSH1 0x20 DUP7 ADD PUSH2 0x18ED JUMP JUMPDEST PUSH2 0x1C09 DUP2 PUSH2 0x1915 JUMP JUMPDEST DUP5 ADD SWAP2 POP POP SWAP3 SWAP2 POP POP JUMP JUMPDEST PUSH0 PUSH1 0x20 DUP3 ADD SWAP1 POP DUP2 DUP2 SUB PUSH0 DUP4 ADD MSTORE PUSH2 0x1C2C DUP2 DUP5 PUSH2 0x1BDC JUMP JUMPDEST SWAP1 POP SWAP3 SWAP2 POP POP JUMP JUMPDEST PUSH0 PUSH1 0x20 DUP3 DUP5 SUB SLT ISZERO PUSH2 0x1C49 JUMPI PUSH2 0x1C48 PUSH2 0x17DD JUMP JUMPDEST JUMPDEST PUSH0 PUSH2 0x1C56 DUP5 DUP3 DUP6 ADD PUSH2 0x1A5F JUMP JUMPDEST SWAP2 POP POP SWAP3 SWAP2 POP POP JUMP JUMPDEST PUSH2 0x1C68 DUP2 PUSH2 0x1804 JUMP JUMPDEST DUP3 MSTORE POP POP JUMP JUMPDEST PUSH0 PUSH1 0x40 DUP3 ADD SWAP1 POP PUSH2 0x1C81 PUSH0 DUP4 ADD DUP6 PUSH2 0x1C5F JUMP JUMPDEST DUP2 DUP2 SUB PUSH1 0x20 DUP4 ADD MSTORE PUSH2 0x1C93 DUP2 DUP5 PUSH2 0x1BDC JUMP JUMPDEST SWAP1 POP SWAP4 SWAP3 POP POP POP JUMP JUMPDEST PUSH0 DUP1 PUSH0 PUSH1 0x60 DUP5 DUP7 SUB SLT ISZERO PUSH2 0x1CB3 JUMPI PUSH2 0x1CB2 PUSH2 0x17DD JUMP JUMPDEST JUMPDEST PUSH0 PUSH2 0x1CC0 DUP7 DUP3 DUP8 ADD PUSH2 0x182B JUMP JUMPDEST SWAP4 POP POP PUSH1 0x20 PUSH2 0x1CD1 DUP7 DUP3 DUP8 ADD PUSH2 0x182B JUMP JUMPDEST SWAP3 POP POP PUSH1 0x40 PUSH2 0x1CE2 DUP7 DUP3 DUP8 ADD PUSH2 0x1A5F JUMP JUMPDEST SWAP2 POP POP SWAP3 POP SWAP3 POP SWAP3 JUMP JUMPDEST PUSH0 DUP1 PUSH1 0x40 DUP4 DUP6 SUB SLT ISZERO PUSH2 0x1D02 JUMPI PUSH2 0x1D01 PUSH2 0x17DD JUMP JUMPDEST JUMPDEST PUSH0 PUSH2 0x1D0F DUP6 DUP3 DUP7 ADD PUSH2 0x182B JUMP JUMPDEST SWAP3 POP POP PUSH1 0x20 PUSH2 0x1D20 DUP6 DUP3 DUP7 ADD PUSH2 0x182B JUMP JUMPDEST SWAP2 POP POP SWAP3 POP SWAP3 SWAP1 POP JUMP JUMPDEST PUSH32 0x4E487B7100000000000000000000000000000000000000000000000000000000 PUSH0 MSTORE PUSH1 0x22 PUSH1 0x4 MSTORE PUSH1 0x24 PUSH0 REVERT JUMPDEST PUSH0 PUSH1 0x2 DUP3 DIV SWAP1 POP PUSH1 0x1 DUP3 AND DUP1 PUSH2 0x1D6E JUMPI PUSH1 0x7F DUP3 AND SWAP2 POP JUMPDEST PUSH1 0x20 DUP3 LT DUP2 SUB PUSH2 0x1D81 JUMPI PUSH2 0x1D80 PUSH2 0x1D2A JUMP JUMPDEST JUMPDEST POP SWAP2 SWAP1 POP JUMP JUMPDEST PUSH32 0x4E6F7420656E6F756768206C697175696469747920666F7220746F6B656E4100 PUSH0 DUP3 ADD MSTORE POP JUMP JUMPDEST PUSH0 PUSH2 0x1DBB PUSH1 0x1F DUP4 PUSH2 0x1BCC JUMP JUMPDEST SWAP2 POP PUSH2 0x1DC6 DUP3 PUSH2 0x1D87 JUMP JUMPDEST PUSH1 0x20 DUP3 ADD SWAP1 POP SWAP2 SWAP1 POP JUMP JUMPDEST PUSH0 PUSH1 0x20 DUP3 ADD SWAP1 POP DUP2 DUP2 SUB PUSH0 DUP4 ADD MSTORE PUSH2 0x1DE8 DUP2 PUSH2 0x1DAF JUMP JUMPDEST SWAP1 POP SWAP2 SWAP1 POP JUMP JUMPDEST PUSH32 0x4E6F7420656E6F756768206C697175696469747920666F7220746F6B656E4200 PUSH0 DUP3 ADD MSTORE POP JUMP JUMPDEST PUSH0 PUSH2 0x1E23 PUSH1 0x1F DUP4 PUSH2 0x1BCC JUMP JUMPDEST SWAP2 POP PUSH2 0x1E2E DUP3 PUSH2 0x1DEF JUMP JUMPDEST PUSH1 0x20 DUP3 ADD SWAP1 POP SWAP2 SWAP1 POP JUMP JUMPDEST PUSH0 PUSH1 0x20 DUP3 ADD SWAP1 POP DUP2 DUP2 SUB PUSH0 DUP4 ADD MSTORE PUSH2 0x1E50 DUP2 PUSH2 0x1E17 JUMP JUMPDEST SWAP1 POP SWAP2 SWAP1 POP JUMP JUMPDEST PUSH32 0x4E487B7100000000000000000000000000000000000000000000000000000000 PUSH0 MSTORE PUSH1 0x11 PUSH1 0x4 MSTORE PUSH1 0x24 PUSH0 REVERT JUMPDEST PUSH0 PUSH2 0x1E8E DUP3 PUSH2 0x186A JUMP JUMPDEST SWAP2 POP PUSH2 0x1E99 DUP4 PUSH2 0x186A JUMP JUMPDEST SWAP3 POP DUP3 DUP3 SUB SWAP1 POP DUP2 DUP2 GT ISZERO PUSH2 0x1EB1 JUMPI PUSH2 0x1EB0 PUSH2 0x1E57 JUMP JUMPDEST JUMPDEST SWAP3 SWAP2 POP POP JUMP JUMPDEST PUSH0 PUSH1 0x40 DUP3 ADD SWAP1 POP PUSH2 0x1ECA PUSH0 DUP4 ADD DUP6 PUSH2 0x1C5F JUMP JUMPDEST PUSH2 0x1ED7 PUSH1 0x20 DUP4 ADD DUP5 PUSH2 0x1873 JUMP JUMPDEST SWAP4 SWAP3 POP POP POP JUMP JUMPDEST PUSH0 DUP2 ISZERO ISZERO SWAP1 POP SWAP2 SWAP1 POP JUMP JUMPDEST PUSH2 0x1EF2 DUP2 PUSH2 0x1EDE JUMP JUMPDEST DUP2 EQ PUSH2 0x1EFC JUMPI PUSH0 DUP1 REVERT JUMPDEST POP JUMP JUMPDEST PUSH0 DUP2 MLOAD SWAP1 POP PUSH2 0x1F0D DUP2 PUSH2 0x1EE9 JUMP JUMPDEST SWAP3 SWAP2 POP POP JUMP JUMPDEST PUSH0 PUSH1 0x20 DUP3 DUP5 SUB SLT ISZERO PUSH2 0x1F28 JUMPI PUSH2 0x1F27 PUSH2 0x17DD JUMP JUMPDEST JUMPDEST PUSH0 PUSH2 0x1F35 DUP5 DUP3 DUP6 ADD PUSH2 0x1EFF JUMP JUMPDEST SWAP2 POP POP SWAP3 SWAP2 POP POP JUMP JUMPDEST PUSH32 0x496E76616C696420726573657276657300000000000000000000000000000000 PUSH0 DUP3 ADD MSTORE POP JUMP JUMPDEST PUSH0 PUSH2 0x1F72 PUSH1 0x10 DUP4 PUSH2 0x1BCC JUMP JUMPDEST SWAP2 POP PUSH2 0x1F7D DUP3 PUSH2 0x1F3E JUMP JUMPDEST PUSH1 0x20 DUP3 ADD SWAP1 POP SWAP2 SWAP1 POP JUMP JUMPDEST PUSH0 PUSH1 0x20 DUP3 ADD SWAP1 POP DUP2 DUP2 SUB PUSH0 DUP4 ADD MSTORE PUSH2 0x1F9F DUP2 PUSH2 0x1F66 JUMP JUMPDEST SWAP1 POP SWAP2 SWAP1 POP JUMP JUMPDEST PUSH0 PUSH2 0x1FB0 DUP3 PUSH2 0x186A JUMP JUMPDEST SWAP2 POP PUSH2 0x1FBB DUP4 PUSH2 0x186A JUMP JUMPDEST SWAP3 POP DUP3 DUP3 MUL PUSH2 0x1FC9 DUP2 PUSH2 0x186A JUMP JUMPDEST SWAP2 POP DUP3 DUP3 DIV DUP5 EQ DUP4 ISZERO OR PUSH2 0x1FE0 JUMPI PUSH2 0x1FDF PUSH2 0x1E57 JUMP JUMPDEST JUMPDEST POP SWAP3 SWAP2 POP POP JUMP JUMPDEST PUSH0 PUSH2 0x1FF1 DUP3 PUSH2 0x186A JUMP JUMPDEST SWAP2 POP PUSH2 0x1FFC DUP4 PUSH2 0x186A JUMP JUMPDEST SWAP3 POP DUP3 DUP3 ADD SWAP1 POP DUP1 DUP3 GT ISZERO PUSH2 0x2014 JUMPI PUSH2 0x2013 PUSH2 0x1E57 JUMP JUMPDEST JUMPDEST SWAP3 SWAP2 POP POP JUMP JUMPDEST PUSH32 0x4E487B7100000000000000000000000000000000000000000000000000000000 PUSH0 MSTORE PUSH1 0x12 PUSH1 0x4 MSTORE PUSH1 0x24 PUSH0 REVERT JUMPDEST PUSH0 PUSH2 0x2051 DUP3 PUSH2 0x186A JUMP JUMPDEST SWAP2 POP PUSH2 0x205C DUP4 PUSH2 0x186A JUMP JUMPDEST SWAP3 POP DUP3 PUSH2 0x206C JUMPI PUSH2 0x206B PUSH2 0x201A JUMP JUMPDEST JUMPDEST DUP3 DUP3 DIV SWAP1 POP SWAP3 SWAP2 POP POP JUMP JUMPDEST PUSH0 DUP1 REVERT JUMPDEST PUSH0 DUP1 REVERT JUMPDEST PUSH32 0x4E487B7100000000000000000000000000000000000000000000000000000000 PUSH0 MSTORE PUSH1 0x41 PUSH1 0x4 MSTORE PUSH1 0x24 PUSH0 REVERT JUMPDEST PUSH2 0x20B5 DUP3 PUSH2 0x1915 JUMP JUMPDEST DUP2 ADD DUP2 DUP2 LT PUSH8 0xFFFFFFFFFFFFFFFF DUP3 GT OR ISZERO PUSH2 0x20D4 JUMPI PUSH2 0x20D3 PUSH2 0x207F JUMP JUMPDEST JUMPDEST DUP1 PUSH1 0x40 MSTORE POP POP POP JUMP JUMPDEST PUSH0 PUSH2 0x20E6 PUSH2 0x17D4 JUMP JUMPDEST SWAP1 POP PUSH2 0x20F2 DUP3 DUP3 PUSH2 0x20AC JUMP JUMPDEST SWAP2 SWAP1 POP JUMP JUMPDEST PUSH0 PUSH8 0xFFFFFFFFFFFFFFFF DUP3 GT ISZERO PUSH2 0x2111 JUMPI PUSH2 0x2110 PUSH2 0x207F JUMP JUMPDEST JUMPDEST PUSH2 0x211A DUP3 PUSH2 0x1915 JUMP JUMPDEST SWAP1 POP PUSH1 0x20 DUP2 ADD SWAP1 POP SWAP2 SWAP1 POP JUMP JUMPDEST PUSH0 PUSH2 0x2139 PUSH2 0x2134 DUP5 PUSH2 0x20F7 JUMP JUMPDEST PUSH2 0x20DD JUMP JUMPDEST SWAP1 POP DUP3 DUP2 MSTORE PUSH1 0x20 DUP2 ADD DUP5 DUP5 DUP5 ADD GT ISZERO PUSH2 0x2155 JUMPI PUSH2 0x2154 PUSH2 0x207B JUMP JUMPDEST JUMPDEST PUSH2 0x2160 DUP5 DUP3 DUP6 PUSH2 0x18ED JUMP JUMPDEST POP SWAP4 SWAP3 POP POP POP JUMP JUMPDEST PUSH0 DUP3 PUSH1 0x1F DUP4 ADD SLT PUSH2 0x217C JUMPI PUSH2 0x217B PUSH2 0x2077 JUMP JUMPDEST JUMPDEST DUP2 MLOAD PUSH2 0x218C DUP5 DUP3 PUSH1 0x20 DUP7 ADD PUSH2 0x2127 JUMP JUMPDEST SWAP2 POP POP SWAP3 SWAP2 POP POP JUMP JUMPDEST PUSH0 PUSH1 0x20 DUP3 DUP5 SUB SLT ISZERO PUSH2 0x21AA JUMPI PUSH2 0x21A9 PUSH2 0x17DD JUMP JUMPDEST JUMPDEST PUSH0 DUP3 ADD MLOAD PUSH8 0xFFFFFFFFFFFFFFFF DUP2 GT ISZERO PUSH2 0x21C7 JUMPI PUSH2 0x21C6 PUSH2 0x17E1 JUMP JUMPDEST JUMPDEST PUSH2 0x21D3 DUP5 DUP3 DUP6 ADD PUSH2 0x2168 JUMP JUMPDEST SWAP2 POP POP SWAP3 SWAP2 POP POP JUMP JUMPDEST PUSH0 DUP2 PUSH1 0x60 SHL SWAP1 POP SWAP2 SWAP1 POP JUMP JUMPDEST PUSH0 PUSH2 0x21F2 DUP3 PUSH2 0x21DC JUMP JUMPDEST SWAP1 POP SWAP2 SWAP1 POP JUMP JUMPDEST PUSH0 PUSH2 0x2203 DUP3 PUSH2 0x21E8 JUMP JUMPDEST SWAP1 POP SWAP2 SWAP1 POP JUMP JUMPDEST PUSH2 0x221B PUSH2 0x2216 DUP3 PUSH2 0x1804 JUMP JUMPDEST PUSH2 0x21F9 JUMP JUMPDEST DUP3 MSTORE POP POP JUMP JUMPDEST PUSH0 PUSH2 0x222C DUP3 DUP5 PUSH2 0x220A JUMP JUMPDEST PUSH1 0x14 DUP3 ADD SWAP2 POP DUP2 SWAP1 POP SWAP3 SWAP2 POP POP JUMP JUMPDEST PUSH32 0x4D7573742073656E6420746F6B656E7320746F20616464206C69717569646974 PUSH0 DUP3 ADD MSTORE PUSH32 0x7900000000000000000000000000000000000000000000000000000000000000 PUSH1 0x20 DUP3 ADD MSTORE POP JUMP JUMPDEST PUSH0 PUSH2 0x2295 PUSH1 0x21 DUP4 PUSH2 0x1BCC JUMP JUMPDEST SWAP2 POP PUSH2 0x22A0 DUP3 PUSH2 0x223B JUMP JUMPDEST PUSH1 0x40 DUP3 ADD SWAP1 POP SWAP2 SWAP1 POP JUMP JUMPDEST PUSH0 PUSH1 0x20 DUP3 ADD SWAP1 POP DUP2 DUP2 SUB PUSH0 DUP4 ADD MSTORE PUSH2 0x22C2 DUP2 PUSH2 0x2289 JUMP JUMPDEST SWAP1 POP SWAP2 SWAP1 POP JUMP JUMPDEST PUSH0 PUSH1 0x60 DUP3 ADD SWAP1 POP PUSH2 0x22DC PUSH0 DUP4 ADD DUP7 PUSH2 0x1C5F JUMP JUMPDEST PUSH2 0x22E9 PUSH1 0x20 DUP4 ADD DUP6 PUSH2 0x1C5F JUMP JUMPDEST PUSH2 0x22F6 PUSH1 0x40 DUP4 ADD DUP5 PUSH2 0x1873 JUMP JUMPDEST SWAP5 SWAP4 POP POP POP POP JUMP JUMPDEST PUSH32 0x416D6F756E74206D7573742062652067726561746572207468616E207A65726F PUSH0 DUP3 ADD MSTORE POP JUMP JUMPDEST PUSH0 PUSH2 0x2332 PUSH1 0x20 DUP4 PUSH2 0x1BCC JUMP JUMPDEST SWAP2 POP PUSH2 0x233D DUP3 PUSH2 0x22FE JUMP JUMPDEST PUSH1 0x20 DUP3 ADD SWAP1 POP SWAP2 SWAP1 POP JUMP JUMPDEST PUSH0 PUSH1 0x20 DUP3 ADD SWAP1 POP DUP2 DUP2 SUB PUSH0 DUP4 ADD MSTORE PUSH2 0x235F DUP2 PUSH2 0x2326 JUMP JUMPDEST SWAP1 POP SWAP2 SWAP1 POP JUMP JUMPDEST PUSH32 0x4E6F7420656E6F756768206C697175696469747920696E20706F6F6C00000000 PUSH0 DUP3 ADD MSTORE POP JUMP JUMPDEST PUSH0 PUSH2 0x239A PUSH1 0x1C DUP4 PUSH2 0x1BCC JUMP JUMPDEST SWAP2 POP PUSH2 0x23A5 DUP3 PUSH2 0x2366 JUMP JUMPDEST PUSH1 0x20 DUP3 ADD SWAP1 POP SWAP2 SWAP1 POP JUMP JUMPDEST PUSH0 PUSH1 0x20 DUP3 ADD SWAP1 POP DUP2 DUP2 SUB PUSH0 DUP4 ADD MSTORE PUSH2 0x23C7 DUP2 PUSH2 0x238E JUMP JUMPDEST SWAP1 POP SWAP2 SWAP1 POP JUMP JUMPDEST PUSH0 PUSH1 0x20 DUP3 ADD SWAP1 POP PUSH2 0x23E1 PUSH0 DUP4 ADD DUP5 PUSH2 0x1C5F JUMP JUMPDEST SWAP3 SWAP2 POP POP JUMP JUMPDEST PUSH0 DUP2 MLOAD SWAP1 POP PUSH2 0x23F5 DUP2 PUSH2 0x1A49 JUMP JUMPDEST SWAP3 SWAP2 POP POP JUMP JUMPDEST PUSH0 PUSH1 0x20 DUP3 DUP5 SUB SLT ISZERO PUSH2 0x2410 JUMPI PUSH2 0x240F PUSH2 0x17DD JUMP JUMPDEST JUMPDEST PUSH0 PUSH2 0x241D DUP5 DUP3 DUP6 ADD PUSH2 0x23E7 JUMP JUMPDEST SWAP2 POP POP SWAP3 SWAP2 POP POP JUMP JUMPDEST PUSH0 DUP2 MLOAD SWAP1 POP PUSH2 0x2434 DUP2 PUSH2 0x1815 JUMP JUMPDEST SWAP3 SWAP2 POP POP JUMP JUMPDEST PUSH0 PUSH1 0x20 DUP3 DUP5 SUB SLT ISZERO PUSH2 0x244F JUMPI PUSH2 0x244E PUSH2 0x17DD JUMP JUMPDEST JUMPDEST PUSH0 PUSH2 0x245C DUP5 DUP3 DUP6 ADD PUSH2 0x2426 JUMP JUMPDEST SWAP2 POP POP SWAP3 SWAP2 POP POP JUMP JUMPDEST PUSH0 DUP2 SWAP1 POP DUP2 PUSH0 MSTORE PUSH1 0x20 PUSH0 KECCAK256 SWAP1 POP SWAP2 SWAP1 POP JUMP JUMPDEST PUSH0 PUSH1 0x20 PUSH1 0x1F DUP4 ADD DIV SWAP1 POP SWAP2 SWAP1 POP JUMP JUMPDEST PUSH0 DUP3 DUP3 SHL SWAP1 POP SWAP3 SWAP2 POP POP JUMP JUMPDEST PUSH0 PUSH1 0x8 DUP4 MUL PUSH2 0x24C1 PUSH32 0xFFFFFFFFFFFFFFFFFFFFFFFFFFFFFFFFFFFFFFFFFFFFFFFFFFFFFFFFFFFFFFFF DUP3 PUSH2 0x2486 JUMP JUMPDEST PUSH2 0x24CB DUP7 DUP4 PUSH2 0x2486 JUMP JUMPDEST SWAP6 POP DUP1 NOT DUP5 AND SWAP4 POP DUP1 DUP7 AND DUP5 OR SWAP3 POP POP POP SWAP4 SWAP3 POP POP POP JUMP JUMPDEST PUSH0 PUSH2 0x24FD PUSH2 0x24F8 PUSH2 0x24F3 DUP5 PUSH2 0x186A JUMP JUMPDEST PUSH2 0x1AD7 JUMP JUMPDEST PUSH2 0x186A JUMP JUMPDEST SWAP1 POP SWAP2 SWAP1 POP JUMP JUMPDEST PUSH0 DUP2 SWAP1 POP SWAP2 SWAP1 POP JUMP JUMPDEST PUSH2 0x2516 DUP4 PUSH2 0x24E3 JUMP JUMPDEST PUSH2 0x252A PUSH2 0x2522 DUP3 PUSH2 0x2504 JUMP JUMPDEST DUP5 DUP5 SLOAD PUSH2 0x2492 JUMP JUMPDEST DUP3 SSTORE POP POP POP POP JUMP JUMPDEST PUSH0 SWAP1 JUMP JUMPDEST PUSH2 0x253E PUSH2 0x2532 JUMP JUMPDEST PUSH2 0x2549 DUP2 DUP5 DUP5 PUSH2 0x250D JUMP JUMPDEST POP POP POP JUMP JUMPDEST JUMPDEST DUP2 DUP2 LT ISZERO PUSH2 0x256C JUMPI PUSH2 0x2561 PUSH0 DUP3 PUSH2 0x2536 JUMP JUMPDEST PUSH1 0x1 DUP2 ADD SWAP1 POP PUSH2 0x254F JUMP JUMPDEST POP POP JUMP JUMPDEST PUSH1 0x1F DUP3 GT ISZERO PUSH2 0x25B1 JUMPI PUSH2 0x2582 DUP2 PUSH2 0x2465 JUMP JUMPDEST PUSH2 0x258B DUP5 PUSH2 0x2477 JUMP JUMPDEST DUP2 ADD PUSH1 0x20 DUP6 LT ISZERO PUSH2 0x259A JUMPI DUP2 SWAP1 POP JUMPDEST PUSH2 0x25AE PUSH2 0x25A6 DUP6 PUSH2 0x2477 JUMP JUMPDEST DUP4 ADD DUP3 PUSH2 0x254E JUMP JUMPDEST POP POP JUMPDEST POP POP POP JUMP JUMPDEST PUSH0 DUP3 DUP3 SHR SWAP1 POP SWAP3 SWAP2 POP POP JUMP JUMPDEST PUSH0 PUSH2 0x25D1 PUSH0 NOT DUP5 PUSH1 0x8 MUL PUSH2 0x25B6 JUMP JUMPDEST NOT DUP1 DUP4 AND SWAP2 POP POP SWAP3 SWAP2 POP POP JUMP JUMPDEST PUSH0 PUSH2 0x25E9 DUP4 DUP4 PUSH2 0x25C2 JUMP JUMPDEST SWAP2 POP DUP3 PUSH1 0x2 MUL DUP3 OR SWAP1 POP SWAP3 SWAP2 POP POP JUMP JUMPDEST PUSH2 0x2602 DUP3 PUSH2 0x18D3 JUMP JUMPDEST PUSH8 0xFFFFFFFFFFFFFFFF DUP2 GT ISZERO PUSH2 0x261B JUMPI PUSH2 0x261A PUSH2 0x207F JUMP JUMPDEST JUMPDEST PUSH2 0x2625 DUP3 SLOAD PUSH2 0x1D57 JUMP JUMPDEST PUSH2 0x2630 DUP3 DUP3 DUP6 PUSH2 0x2570 JUMP JUMPDEST PUSH0 PUSH1 0x20 SWAP1 POP PUSH1 0x1F DUP4 GT PUSH1 0x1 DUP2 EQ PUSH2 0x2661 JUMPI PUSH0 DUP5 ISZERO PUSH2 0x264F JUMPI DUP3 DUP8 ADD MLOAD SWAP1 POP JUMPDEST PUSH2 0x2659 DUP6 DUP3 PUSH2 0x25DE JUMP JUMPDEST DUP7 SSTORE POP PUSH2 0x26C0 JUMP JUMPDEST PUSH1 0x1F NOT DUP5 AND PUSH2 0x266F DUP7 PUSH2 0x2465 JUMP JUMPDEST PUSH0 JUMPDEST DUP3 DUP2 LT ISZERO PUSH2 0x2696 JUMPI DUP5 DUP10 ADD MLOAD DUP3 SSTORE PUSH1 0x1 DUP3 ADD SWAP2 POP PUSH1 0x20 DUP6 ADD SWAP5 POP PUSH1 0x20 DUP2 ADD SWAP1 POP PUSH2 0x2671 JUMP JUMPDEST DUP7 DUP4 LT ISZERO PUSH2 0x26B3 JUMPI DUP5 DUP10 ADD MLOAD PUSH2 0x26AF PUSH1 0x1F DUP10 AND DUP3 PUSH2 0x25C2 JUMP JUMPDEST DUP4 SSTORE POP JUMPDEST PUSH1 0x1 PUSH1 0x2 DUP9 MUL ADD DUP9 SSTORE POP POP POP JUMPDEST POP POP POP POP POP POP JUMP JUMPDEST PUSH32 0x4461696C7920726577617264206C696D69742072656163686564000000000000 PUSH0 DUP3 ADD MSTORE POP JUMP JUMPDEST PUSH0 PUSH2 0x26FC PUSH1 0x1A DUP4 PUSH2 0x1BCC JUMP JUMPDEST SWAP2 POP PUSH2 0x2707 DUP3 PUSH2 0x26C8 JUMP JUMPDEST PUSH1 0x20 DUP3 ADD SWAP1 POP SWAP2 SWAP1 POP JUMP JUMPDEST PUSH0 PUSH1 0x20 DUP3 ADD SWAP1 POP DUP2 DUP2 SUB PUSH0 DUP4 ADD MSTORE PUSH2 0x2729 DUP2 PUSH2 0x26F0 JUMP JUMPDEST SWAP1 POP SWAP2 SWAP1 POP JUMP JUMPDEST PUSH32 0x4E487B7100000000000000000000000000000000000000000000000000000000 PUSH0 MSTORE PUSH1 0x32 PUSH1 0x4 MSTORE PUSH1 0x24 PUSH0 REVERT INVALID LOG2 PUSH5 0x6970667358 0x22 SLT KECCAK256 0xEC 0xEC INVALID 0xE0 CALLER 0xB2 SGT ORIGIN EXTCODECOPY PUSH13 0x20EFD9753ED9A1A36B9B9CDFBB SUB 0xB3 PUSH27 0x4E6D642C561264736F6C6343000818003300000000000000000000 "
		},
		"gasEstimates": {
			"creation": {
				"codeDepositCost": "2026200",
				"executionCost": "infinite",
				"totalCost": "infinite"
			},
			"external": {
				"_getTokenSymbol(address)": "infinite",
				"addLiquidity(address,address,uint256,uint256)": "infinite",
				"dailyReward(address)": "2891",
				"getAllTokens()": "infinite",
				"getAmountOfTokens(uint256,uint256,uint256)": "infinite",
				"getUserHash(address)": "2874",
				"lastClaimed(address)": "2826",
				"removeLiquidity(address,address,uint256,uint256)": "infinite",
				"rewardAmount()": "413",
				"setUserHash(address)": "infinite",
				"spagghetiToken()": "infinite",
				"swap(address,address,uint256)": "infinite",
				"tokenList(uint256)": "infinite",
				"tokenReserves(address,address)": "infinite",
				"userHashes(address)": "2869"
			},
			"internal": {
				"_addTokenIfNotExists(address)": "infinite",
				"_rewardUser(address)": "infinite",
				"_tokenExists(address)": "infinite"
			}
		},
		"methodIdentifiers": {
			"_getTokenSymbol(address)": "8bcee437",
			"addLiquidity(address,address,uint256,uint256)": "cf6c62ea",
			"dailyReward(address)": "cb868f54",
			"getAllTokens()": "2a5c792a",
			"getAmountOfTokens(uint256,uint256,uint256)": "7386479e",
			"getUserHash(address)": "64377452",
			"lastClaimed(address)": "013eba92",
			"removeLiquidity(address,address,uint256,uint256)": "3ee7f9d3",
			"rewardAmount()": "f7b2a7be",
			"setUserHash(address)": "bf4741fb",
			"spagghetiToken()": "61dedf9f",
			"swap(address,address,uint256)": "df791e50",
			"tokenList(uint256)": "9ead7222",
			"tokenReserves(address,address)": "efcf2516",
			"userHashes(address)": "c3cfe4a1"
		}
	},
	"abi": [
		{
			"inputs": [],
			"stateMutability": "nonpayable",
			"type": "constructor"
		},
		{
			"inputs": [
				{
					"internalType": "address",
					"name": "token",
					"type": "address"
				}
			],
			"name": "_getTokenSymbol",
			"outputs": [
				{
					"internalType": "string",
					"name": "",
					"type": "string"
				}
			],
			"stateMutability": "view",
			"type": "function"
		},
		{
			"inputs": [
				{
					"internalType": "address",
					"name": "tokenA",
					"type": "address"
				},
				{
					"internalType": "address",
					"name": "tokenB",
					"type": "address"
				},
				{
					"internalType": "uint256",
					"name": "amountA",
					"type": "uint256"
				},
				{
					"internalType": "uint256",
					"name": "amountB",
					"type": "uint256"
				}
			],
			"name": "addLiquidity",
			"outputs": [],
			"stateMutability": "nonpayable",
			"type": "function"
		},
		{
			"inputs": [
				{
					"internalType": "address",
					"name": "",
					"type": "address"
				}
			],
			"name": "dailyReward",
			"outputs": [
				{
					"internalType": "uint256",
					"name": "",
					"type": "uint256"
				}
			],
			"stateMutability": "view",
			"type": "function"
		},
		{
			"inputs": [],
			"name": "getAllTokens",
			"outputs": [
				{
					"components": [
						{
							"internalType": "address",
							"name": "tokenAddress",
							"type": "address"
						},
						{
							"internalType": "string",
							"name": "tokenSymbol",
							"type": "string"
						}
					],
					"internalType": "struct spagghetiDex.TokenInfo[]",
					"name": "",
					"type": "tuple[]"
				}
			],
			"stateMutability": "view",
			"type": "function"
		},
		{
			"inputs": [
				{
					"internalType": "uint256",
					"name": "inputAmountAfterFee",
					"type": "uint256"
				},
				{
					"internalType": "uint256",
					"name": "inputReserve",
					"type": "uint256"
				},
				{
					"internalType": "uint256",
					"name": "outputReserve",
					"type": "uint256"
				}
			],
			"name": "getAmountOfTokens",
			"outputs": [
				{
					"internalType": "uint256",
					"name": "",
					"type": "uint256"
				}
			],
			"stateMutability": "pure",
			"type": "function"
		},
		{
			"inputs": [
				{
					"internalType": "address",
					"name": "user",
					"type": "address"
				}
			],
			"name": "getUserHash",
			"outputs": [
				{
					"internalType": "bytes32",
					"name": "",
					"type": "bytes32"
				}
			],
			"stateMutability": "view",
			"type": "function"
		},
		{
			"inputs": [
				{
					"internalType": "address",
					"name": "",
					"type": "address"
				}
			],
			"name": "lastClaimed",
			"outputs": [
				{
					"internalType": "uint256",
					"name": "",
					"type": "uint256"
				}
			],
			"stateMutability": "view",
			"type": "function"
		},
		{
			"inputs": [
				{
					"internalType": "address",
					"name": "tokenA",
					"type": "address"
				},
				{
					"internalType": "address",
					"name": "tokenB",
					"type": "address"
				},
				{
					"internalType": "uint256",
					"name": "amountA",
					"type": "uint256"
				},
				{
					"internalType": "uint256",
					"name": "amountB",
					"type": "uint256"
				}
			],
			"name": "removeLiquidity",
			"outputs": [],
			"stateMutability": "nonpayable",
			"type": "function"
		},
		{
			"inputs": [],
			"name": "rewardAmount",
			"outputs": [
				{
					"internalType": "uint256",
					"name": "",
					"type": "uint256"
				}
			],
			"stateMutability": "view",
			"type": "function"
		},
		{
			"inputs": [
				{
					"internalType": "address",
					"name": "user",
					"type": "address"
				}
			],
			"name": "setUserHash",
			"outputs": [],
			"stateMutability": "nonpayable",
			"type": "function"
		},
		{
			"inputs": [],
			"name": "spagghetiToken",
			"outputs": [
				{
					"internalType": "contract Spaggheti",
					"name": "",
					"type": "address"
				}
			],
			"stateMutability": "view",
			"type": "function"
		},
		{
			"inputs": [
				{
					"internalType": "address",
					"name": "fromToken",
					"type": "address"
				},
				{
					"internalType": "address",
					"name": "toToken",
					"type": "address"
				},
				{
					"internalType": "uint256",
					"name": "fromAmount",
					"type": "uint256"
				}
			],
			"name": "swap",
			"outputs": [
				{
					"internalType": "uint256",
					"name": "toAmount",
					"type": "uint256"
				}
			],
			"stateMutability": "nonpayable",
			"type": "function"
		},
		{
			"inputs": [
				{
					"internalType": "uint256",
					"name": "",
					"type": "uint256"
				}
			],
			"name": "tokenList",
			"outputs": [
				{
					"internalType": "address",
					"name": "tokenAddress",
					"type": "address"
				},
				{
					"internalType": "string",
					"name": "tokenSymbol",
					"type": "string"
				}
			],
			"stateMutability": "view",
			"type": "function"
		},
		{
			"inputs": [
				{
					"internalType": "address",
					"name": "",
					"type": "address"
				},
				{
					"internalType": "address",
					"name": "",
					"type": "address"
				}
			],
			"name": "tokenReserves",
			"outputs": [
				{
					"internalType": "uint256",
					"name": "",
					"type": "uint256"
				}
			],
			"stateMutability": "view",
			"type": "function"
		},
		{
			"inputs": [
				{
					"internalType": "address",
					"name": "",
					"type": "address"
				}
			],
			"name": "userHashes",
			"outputs": [
				{
					"internalType": "bytes32",
					"name": "",
					"type": "bytes32"
				}
			],
			"stateMutability": "view",
			"type": "function"
		}
	]
}